:020000040800F2
:1000000010040020691B0008451B0008471B00085E
:10001000491B00084B1B00084D1B00080000000096
:100020000000000000000000000000004F1B00085E
:10003000511B000800000000531B0008551B00085E
:100040009D1B0008A11B0008A51B0008A91B000898
:10005000AD1B0008B11B0008B51B0008B91B000848
:10006000BD1B0008C11B0008C51B0008C91B0008F8
:10007000CD1B0008D11B0008D51B0008D91B0008A8
:10008000DD1B0008E11B0008E51B0008E91B000858
:10009000ED1B0008F11B0008F51B0008F91B000808
:1000A000FD1B0008011C0008051C0008091C0008B5
:1000B0000D1C0008111C0008151C0008191C000864
:1000C0001D1C0008211C0008251C0008291C000814
:1000D0002D1C0008311C0008351C0008391C0008C4
:1000E0003D1C0008411C0008451C0008491C000874
:1000F0004D1C0008511C0008551C0008591C000824
:100100005D1C0008611C0008651C0008691C0008D3
:100110006D1C0008711C0008751C0008791C000883
:100120007D1C0008811C0008851C0008891C000833
:100130008D1C0008911C0008951C0008991C0008E3
:100140009D1C0008A11C0008A51C0008A91C000893
:10015000AD1C0008B11C0008B51C0008B91C000843
:10016000BD1C0008C11C0008C51C0008C91C0008F3
:10017000CD1C0008D11C0008D51C000800000000A0
:10018000D91C0008DD1C00082DE9F047050082B0ED
:100190001AD0DFF81C47DFF82867A06800F00C08C9
:1001A000E06800F003092878C10665D5B8F1000FB2
:1001B00005D0B8F10C0F08BFB9F1010F40D120688C
:1001C000810703D5A869002800F07E81216808070F
:1001D0004EBF216871680909286A01F0F001814267
:1001E00006D200F029FB00281AD100F032FA19E0FB
:1001F000206840F0080020602168286A21F0F001A2
:1002000001432160B8F1000F6068E96920F47F4084
:1002100040EA0120606005D1286A00F00DFB00284B
:1002200040F0528100F0ABFAA26800F09EFADFF8CD
:100230008806006800F05CFB010000F0338103E2F7
:10024000A86988B1216841F00101216000F072FBCA
:1002500007462068810700F1238100F06BFBC01B7B
:100260000328F6D30320EFE120684008400000F0A7
:10027000EDF907462168880740F1148100F05AFB28
:10028000C01B0328F6D3EDE76868B0F5803F06D0C1
:10029000B0F5A02F216807D141F4802121602068AA
:1002A00040F48030206006E021F480312160226833
:1002B00022F480222260686860B100F03BFB0746B0
:1002C0002168880300F1028100F034FBC01B65281F
:1002D000F6D3C7E700F02EFB07462068810340F104
:1002E000F58000F027FBC01B6528F6D3BAE700F0C5
:1002F00021FBC01B0328C0F01181B3E7E86880B17F
:10030000216841F48071216000F014FB07462068E9
:10031000410500F1338100F00DFBC01B0328F6D32B
:10032000A0E7206820F4807000F090F9074621686B
:10033000480540F1E58000F0FDFAC01B0328F6D324
:1003400090E7706840084000706000F0F3FA0746DC
:100350007068810740F1E68000F0ECFAC01B0328CA
:10036000F6D37FE70528306806D140F004003060FE
:10037000316841F0010105E040084000306031681B
:1003800021F004013160A86841F2893A60B100F0BF
:10039000D1FA07463168880700F1018100F0CAFAF6
:1003A000C01B5045F6D35DE700F0C4FA074630683D
:1003B000810740F1F48000F0BDFAC01B5045F6D330
:1003C00050E700F400328A4211D1EA6B921E120506
:1003D00000F4C001520DB1EB425F08D1296C891EB7
:1003E000090600F0C06001F07E4188421FD0B8F1DC
:1003F0000C0F69D02068410166D42168C80063D41D
:10040000206820F0807000F021F9074621688801FB
:1004100040F1EC8000F08EFAC01B0328F6D321E7F0
:1004200000F088FAC01B0328C0F009811AE7206891
:1004300081010CD4216841F080712160E06840F0B6
:100440008070E06000F076FA07462068810100F1D4
:10045000FA8000F06FFAC01B0328F6D302E7B8F168
:100460000C0F31D0206820F080702060216811F0DE
:10047000205F03D1E06880088000E060E168DFF879
:1004800044040140E16000F055FA0746206881010C
:1004900040F1D98000F04EFAC01B0328F6D3E1E604
:1004A00000F0D7F82878C10710D5B8F1080F06D0AA
:1004B000B8F10C0F08BFB9F1030F7FF4E5AE206867
:1004C000810303D5686808B90120BDE02978880751
:1004D00016D5B8F1040F06D0B8F10C0F08BFB9F16A
:1004E000020F7FF40BAF2068410502D5E8680028B1
:1004F000EAD06168286921F0F85141EA0061616041
:10050000297808070ED5686900283FF41AAF71688A
:1005100041F00101716000F00DFA07467068810733
:100520007FF5E5AE2978480740D5A06DC1004FF0B2
:1005300000090AD4A06D40F08050A0654FF0010979
:10054000A06D00F0805000900098DFF87CA3DAF8EE
:100550000010C8051AD4DAF8000040F48070CAF818
:10056000000000F0E7F90746DAF80010C8050DD4DE
:1005700000F0E0F9C01B0328F6D373E66068296930
:1005800020F0F85040EA01606060B9E7A8680128EF
:100590007FF4E8AE306840F001003060F3E6B9F176
:1005A000000F03D0A06D20F08050A065A86A00283D
:1005B00049D002287FF453AFE068EA6A00F00301F3
:1005C000914201BF00F070012A6B521EB1EB021F75
:1005D00004D16A6B00F4FE41B1EB022F7FF407AF48
:1005E000A96B07290CBF00210121EAE6E168DFF8C9
:1005F000DC02EA6B0140E86A0143286B401E41EAD5
:100600000011686B921E120541EA0021286C801EC1
:10061000520D000641EA425100F07E400143A86BB2
:10062000000941EA4041E160206840F080702060AC
:10063000E16841F08071E16000F07CF907462068D4
:1006400081017FF5EDAE0020BDE8F687206000F067
:1006500071B9206840F0080020602168286A21F004
:10066000F001014321606068E96920F47F4040EABD
:100670000120606070472DE9F0410400884668D091
:10068000DFF84C7200F06CF802D200F064F860D130
:100690002178DFF81C52C8074AD56068032802D1C8
:1006A00029688A0107E0022802D129688A0302E04A
:1006B00018B929688A0703D44BE02A68510548D540
:1006C000A968890840EA8100A86000F033F906466D
:1006D000A868616800F00C00B0EB810F28D000F032
:1006E00029F9801B41F289329042F1D303201DE0A9
:1006F0002078410705D5A968E06821F4E06101434D
:10070000A9602078010706D5A868216920F4605007
:1007100040EAC100A86000F032F8AA6800F025F8AD
:10072000BDE8F0416448006800F0E2B8BDE8F0813F
:100730002178880705D5A968A06821F0F001014358
:10074000A960386800F007008045D1D200F003F8B6
:10075000CED00120EAE73968C90848EAC10139600A
:10076000386800F00700404570475A49C2F3031249
:10077000895C504A01F01F01C8401060704770B595
:100780004B4A564B9068D6680025002110F00C00AB
:1007900006F00306524C03D00C2812D1012E1AD1B8
:1007A00015682E0704D4454D2E68C6F3032502E0D4
:1007B0001568C5F303154B4E56F8255048B9294620
:1007C00024E0042808BF214620D008281ED119465D
:1007D0001CE00C281AD1D06800F00300022803D0D6
:1007E000032808BF1D4600E02546D168D068D268BE
:1007F000C0F306204543C1F30210C2F34161401C1F
:10080000491CB5FBF0F04900B0FBF1F1084670BDA2
:100810002848314A006813683349C3F3022206E0CE
:1008200024482D4A006813682F49C3F3C222895C0B
:1008300001F01F01C840704770B52C4E82B00546CC
:1008400030680024C10002D500F07AF80EE030686C
:1008500040F080503060316801F080510091009884
:1008600000F06EF8316821F080513160B0F5007F02
:1008700004D1802D0CD9A12D09D304E0802D88BF8F
:10088000032405D801D1022402E0702D00D10124F7
:100890000F480168C90844EAC1010160006800F01E
:1008A0000700A04201D0012076BD002076BD0000E7
:1008B000001002400C0000200800002094100240AC
:1008C00090100240FFFFEEFE007000408C809DF90A
:1008D00000200240E41900080810024000127A00CB
:1008E0000024F400F4190008941B0008581002407A
:1008F00070B50E4E044630780025A0B14FF47A71E1
:10090000B1FBF0F00A490A68B2FBF0F000F090F891
:1009100048B9102C07D2002221464FF0FF3000F0DA
:1009200069F8B46000E00125284670BD0000002091
:100930000C00002001484068704700BF0000002004
:10094000DFF87000006800F4C060704710B5DFF891
:100950006410B0F5007F086800F4C0601AD1B0F5EB
:10096000007F20D00A68DFF85030DFF8504022F4D2
:10097000C06242F400720A6032201A684243B2FB3D
:10098000F4F0401C4A6953050FD5002818BF401EDB
:10099000F8D10AE0B0F5806F05D00A6822F4C06291
:1009A00042F480620A60002010BD48694105FAD512
:1009B000032010BD007000400C00002040420F00DA
:1009C0000901020002D4244881547047234802F0F0
:1009D0000F02104400F8041C7047214A13684FF6B8
:1009E000FF0100020B4000F4E06018431D4908437A
:1009F0001060704738B51A4B1C68C4F30223C3F16A
:100A00000704052C28BF04241D1D072D34BF002317
:100A1000DB1E012505FA04F4641E2140994005FA05
:100A200003F35B1E1A401143BDE83440C8E70000E1
:100A300010B5401EB0F1807F01D3012010BD0A4CDB
:100A400060600F214FF0FF30FFF7BAFF0022A26075
:100A500007202060002010BD00E400E018ED00E059
:100A60000CED00E00000FA0510E000E02DE9F04791
:100A7000064682B03068DFF8187400240105A046ED
:100A800021D5706E70B1B0F5800F17D0B0F5000FA2
:100A900003D0B0F5400F09D013E03A6842F4803239
:100AA0003A6004E0002100F07AF9044654B9F96F85
:100AB000706E21F440010143F96704E000F069F928
:100AC000F3E70124A0463068C10421D5B06EA8B177
:100AD000B0F1807F17D0B0F1007F03D0B0F1407F3C
:100AE00004D013E0386840F4803038607CB9F96F86
:100AF000B06E21F040710143F96709E0002100F078
:100B00004EF90446F2E700F044F9FAE70124A04662
:100B1000306881032BD5F86CC1004FF000090AD46E
:100B2000F86C40F08050F8644FF00109F86C00F068
:100B3000805000900098DFF85C53296841F4807180
:100B40002960FFF7F7FE82462868C10500F1ED80B5
:100B5000FFF7F0FEA0EB0A000328F5D30324A0461C
:100B6000B9F1000F03D0F86C20F08050F8643178B0
:100B7000C80705D5F96FB06B890840EA8101F967AC
:100B80003078810705D5F96FF06B21F00C01014336
:100B9000F9673078410705D5F96F306C21F03001E5
:100BA0000143F9673078010705D5F96F706C21F0C2
:100BB000C0010143F9673078C10605D5F96FB06C03
:100BC00021F440710143F9673078810605D5F96F4A
:100BD000F06C21F440610143F9673068810505D567
:100BE000F96FF06D21F440210143F9673068410548
:100BF00005D5F96F306E21F440110143F967307863
:100C0000410605D5F96F306D21F440510143F96774
:100C10003078010605D5F96F706D21F4404101432C
:100C2000F9673068C10505D5F96FB06D21F4403121
:100C30000143F967306881041CD5F96FF06E00F04C
:100C40009EF8F06EB0F1006F0DD100F09DF811E04C
:100C5000FFF770FE001B41F289318842C0F08380AB
:100C60004FF003087CE7B0F1806F03D100F096F8F5
:100C700000B180463068010311D5F96F306F00F084
:100C80007EF8306FB0F1006F02D100F07DF806E021
:100C9000B0F1806F03D100F081F800B18046306878
:100CA000410311D5F96F706F00F069F8706FB0F102
:100CB000006F02D100F068F806E0B0F1806F03D158
:100CC00000F06CF800B180463068410417D5F96F28
:100CD000B06F21F040510143F967B06FB0F1805F10
:100CE00003D1022100F05BF807E0B0F1005F06D10C
:100CF000022106F1200000F0D5F800B180463068EE
:100D0000010405D5F96FF06F21F080410143F967C7
:100D10003068C10306D5F96FD6F8800021F0004194
:100D20000143F9674046BDE8F687002C7FF417AF12
:100D3000DFF86C52286810F440701CBFD6F884109D
:100D400088420BD02868296841F48031296020F45A
:100D500040702A6822F480322A602860C00706D5D5
:100D6000FFF7E8FD0446286881077FF571AF296821
:100D7000D6F8840021F4407101432960F0E621F0A7
:100D800040610143F9677047386840F4801038606B
:100D90007047002106F1200000F084B80121301DC9
:100DA000FFE72DE9F04105467E4F28680C46F968BB
:100DB000002611F0030F0DD0F96801F00301814204
:100DC00031D180B3F8686968C0F30210401C8842D2
:100DD0000ED028E0012804D025D303281DD018D335
:100DE00021E039688A071ED5F9686A6800F0C4F8FE
:100DF000386820F0806000F0CFF88046396808013C
:100E000036D5FFF797FDA0EB08000328F6D303269D
:100E10003CE039684A05E7D405E03A689103E3D439
:100E200039684A03E0D4012630E0012C3A690AD13E
:100E30005D4802402869801E000542EA0121400DFC
:100E400041EA405104E059480240686900F09CF8CA
:100E50003961386840F0806000F09EF804463968D7
:100E600008010FD4FFF766FD001B0328F7D3CEE778
:100E7000A968002CD9D13A694D480240E86800F0D1
:100E80000BF8E5E73969A8690143396171E00000B1
:100E90000C1002400070004042EA0121000941EAC2
:100EA000404170472DE9F04104463E4F2068884696
:100EB000F968002611F0030F0DD0F96801F0030165
:100EC000814230D178B3F8686168C0F30210401CE9
:100ED00088420ED027E0012804D024D303281CD058
:100EE00017D320E039688A071DD5F968626800F0D9
:100EF00043F8386820F0805000F04EF80546396815
:100F0000880027D5FFF716FD401B0328F7D30326DB
:100F10002FE039684A05E8D405E03A689103E4D443
:100F200039684A03E1D4012623E0204802402069C1
:100F300000F02AF87961386840F0805000F02CF811
:100F400005463968880010D4FFF7F4FC401B0328DD
:100F5000F7D3DCE7A1687A69B8F1000FE5D114484E
:100F60000240E068FFF798FFE4E7796960690143B0
:100F700079613046BDE8F08121F073010843521ECB
:100F800040EA0210F8607047801E000642EA012124
:100F900000F07E40014370473860FFF7CBBC000093
:100FA0009010024000100240FF809FFFFF80FFF979
:100FB000FF80FDFF38B5040009D004F170056868B2
:100FC00008B900F01EF800F021F8012801D1012035
:100FD00032BD606A08B100F02AF800F00AF821F08A
:100FE0002A01FFE7816000F01BF8BDE8324000F005
:100FF000A0B92068416821F490414160206881686F
:10100000704700212970204600F01ABA2420686039
:1010100020680168490849000160204600F00AB8CC
:101020002068016841F001010160204670472046B8
:1010300000F01CB9F8B5044683482168834F0A685C
:10104000834E0240A0680243206902436069024364
:10105000E06902430A6000254A68E06822F44052D1
:1010600002434A60A369774A91421CBF206A034346
:10107000886820F4306003438B60B94275484FF4B0
:10108000004333D1366806F00306032E3BD8DFE871
:1010900006F0026F60810127E169B1F5004F4FF65C
:1010A000F07640F0A7805FB1012F00F09B80022F07
:1010B0000AD0042F00F09980082F00F09980BBE03F
:1010C000FFF7A6FB002810D061684A0802EB400237
:1010D000B2FBF1F080B2A0F11001B142EFD20640B4
:1010E000C0F3420006432068C660A6E05A4FB942EA
:1010F00021D1366816F00C065DD0042E38D0082EAB
:1011000027D00C2E46D010279142C5D137B1022FDF
:1011100008D0042F51D0082F52D08DE0FFF778FB74
:101120000028E2D0626802EB4201884202D3110338
:10113000814247D280E0494FB9420CD1366816F05F
:10114000300638D0102E13D0202E02D0302E21D0D1
:10115000D9E70227D8E7424FB9420BD1366816F0DB
:10116000C00628D0402E03D0802EF2D0C02EEEE74D
:101170000427C9E73B4FB9420ED1366816F44076D2
:1011800019D0B6F5807FF3D0B6F5007FE1D0B6F583
:10119000407FB8D10827B7E79142B4D1376817F438
:1011A000406708D0B7F5806FE2D0B7F5006FD0D0B8
:1011B000B7F5406FCBE70027A6E7FFF7E0FAAFE708
:1011C0001846AFE7010E560816EB002069410023D0
:1011D00000F06CF9A0F54071234A91422CD22268AC
:1011E000D0602AE0FFF71CFB6CE7FFF7C8FA69E75D
:1011F000184669E747B1012F16D0022F07D0042FF8
:1012000015D0082F16D017E0FFF702FBA8B16168D0
:1012100000EB5100B0FBF1F080B2A0F11001B1423F
:101220000AD22168C86008E0FFF7FAFAEEE7FFF794
:10123000A6FAEBE71846EAE701250020206660667B
:101240002846F2BD00800040F369FFEF00380140FE
:10125000881002400024F400004400400048004090
:10126000004C00400050004000FD0F0090F824109A
:10127000CA0706D502685368816A23F400330B431A
:10128000536090F824108A0706D502685368C16A33
:1012900023F480330B43536090F824104A0706D59B
:1012A00002685368016B23F480230B43536090F86A
:1012B00024100A0706D502685368416B23F40043E3
:1012C0000B43536090F82410CA0606D50268936851
:1012D000816B23F480530B43936090F824108A06AB
:1012E00006D502689368C16B23F400530B439360E7
:1012F00090F824104A0610D502685368016C23F454
:1013000080130B435360016CB1F5801F05D1536806
:10131000416C23F4C0030B43536090F824100A0679
:1013200006D502685168806C21F4002101435160A8
:101330007047F8B5044604F170050020E8606FF0CE
:101340007E47FFF7F7FA0646206801680A0708D5C6
:101350000097334600224FF40011204600F016F8A3
:1013600060B9206801684A070AD500973346002211
:101370004FF48001204600F009F808B10320F2BDC7
:1013800020206860A86000202870F2BD2DE9F0419F
:10139000069C05460E4690461F462868C1693140A6
:1013A000B1420CBF0120002040451CD114F1010FB7
:1013B000F3D0FFF7BFFAC01B844200D314B900F08A
:1013C00015F80CE0286801684A07E6D5C1690A05E6
:1013D000E3D54FF40062026200F008F8C16000211A
:1013E0000170032000E00020BDE8F081286801685A
:1013F00021F4D07101602868816849084900816042
:1014000005F17000202141608160704780B524485B
:10141000244901604FF4E131416000218160C160E5
:1014200001610C21416100218161C1610162416260
:10143000FFF7C0FD18B1BDE8014000F008B901BDDB
:1014400010B586B0044601A8142100F001F9216806
:10145000144A914221D11448C16841F40031C1605D
:101460000222C16801F4003100910099016841F045
:10147000010101600C21006800F00100009000985B
:10148000019100200390032107200491059002920E
:1014900001A94FF0904000F0DFF806B010BD000049
:1014A00010040020004400404C1002401B4213D1A5
:1014B000094236D12AB18446B0FBF2F002FB10C2D9
:1014C000704700F0CFB9FCD30022002370470B0017
:1014D0000200002100207047904271EB030CF6D30C
:1014E00070B5B1FA81F4B3FA83F52C1BA340C4F1B3
:1014F000200532FA05F63343A2405FF00046E6408D
:1015000002E05B085FEA3202841A71EB030524BF34
:10151000204629467641F4D302000B00300000211A
:1015200070BD012ACFD970B5140C20D0B1FA81F466
:10153000B2FA82F5C4F120046419B4F12006D6D3BE
:10154000B2405FF00044F440002502E052085FEA38
:101550003303C61A71EB020E24BF30467146644154
:101560006D41F3D302000B002000290070BD0C4632
:10157000B1FBF2F102FB11452D0445EA1045B5FB24
:10158000F2F402FB145580B240EA0545B5FBF2F0D7
:1015900002FB105240EA044070BD000080B500F02C
:1015A00063F900F017F800F075F9FFF72FFF04E07A
:1015B00020214FF0904000F03EF94FF400510448D4
:1015C00000F033F9002814BF00220122F0E70000E8
:1015D0000008004800B5B9B005A8442100F038F86B
:1015E0006846142100F034F816A8882100F030F87D
:1015F000022005904FF4807108911020099002217B
:101600000F9110910A2001211290119102200721BF
:1016100014901590139105A8FEF7B6FD0F200090C9
:101620000321002001910290039004900421684658
:10163000FFF721F8022016900021259116A8FFF748
:1016400015FA4FF40070FFF781F939B000BD70470B
:10165000002200F06FB900002DE9F84F4FF0000CA8
:10166000774A784BDFF8E0814FF00F0906460F46C6
:1016700034E0764CA64214BF07240624AC4044EA6A
:101680000E0443F82140C143146801EA040E7C684B
:10169000E50348BF40EA0E0EC2F800E0546801EAD4
:1016A000040E7C68A50348BF40EA0E0EC2F804E0B1
:1016B000946801EA040E7C68E50248BF40EA0E0E19
:1016C000C2F808E0D46801EA040E79688C0248BFC9
:1016D00040EA0E0EC2F80CE00CF1010C396831FA48
:1016E0000CF000F0A080012505FA0CF515EA0100C8
:1016F000F2D04FEA4C0E032404FA0EF47968E44366
:10170000ED43012918BF022903D0112918BF12295E
:1017100013D1B168D7F80CA021400AFA0EFA4AEAB0
:101720000101B1607168D7F804A0CAF3001A29401A
:101730000AFA0CFA4AEA01017160796801F0030AB9
:10174000BAF1030F09D1D6F82CA0C1F3C00105EA04
:101750000A0501FA0CF10D43F562F168BD682140FC
:1017600005FA0EF52943F1604FEA8C0579680229E4
:1017700018BF122916D14FEADC0106EB810A05F0E9
:101780001C0BDAF8201009FA0BFB21EA0B0100917F
:1017900005F01C0B396901FA0BFB00994BEA0101BA
:1017A000CAF82010316821403C7904F0030404FA9F
:1017B0000EF4214331607968C9008DD5D8F8001046
:1017C00041F00101C8F8001005F00C05D8F8004000
:1017D00004F00104009409FA05FE00994FEA9C0107
:1017E00053F8214024EA0E0EB6F1904F08BF0024B2
:1017F00018D0174CA64208BF012413D0154CA6429E
:1018000008BF02240ED0144CA64208BF032409D0FE
:10181000124CA64208BF042404D0114CA6427FF407
:1018200028AF05242AE7BDE8F18F0069084018BFFA
:101830000120C0B270470AB1816170478162704770
:1018400000040140080001406010024000180048F8
:101850000004004800080048000C00480010004840
:101860000014004870470000094810B5016841F4B1
:10187000807101600320FFF7B0F80020FFF738F80F
:101880000024002814BF012400F06EF8204610BD8B
:101890000020024010B586B001A81421FFF7D8FE41
:1018A0002148046844F004040460016801F0040164
:1018B00000910099016841F080010160026802F026
:1018C000800200920099016841F001010160026804
:1018D00002F00102009200220099016841F0020129
:1018E00001602021006800F00200009000984FF095
:1018F0009040FFF7A0FF4FF40050019000200B49EB
:101900000291039001A90A48FFF7A6FE202001904A
:101910000121002002910390049001A94FF0904012
:10192000FFF79AFE06B010BD4C10024000002110D7
:101930000008004800B500BF1300964694461039D1
:1019400028BFA0E80C50FAD85FEA417C28BF0CC041
:1019500048BF40F8042BC90728BF20F8022B48BF16
:1019600000F8012B00BD00000A4881B0816841F0F9
:1019700001018160816801F0010100910099016815
:1019800041F080510160006800F0805000900098A4
:1019900001B07047581002400E48016841F47001D0
:1019A000016000220C49086840F0010008608A606C
:1019B0000A480A6802400A604FF48050C86000225A
:1019C000086820F4802008608A614FF000600449B4
:1019D0000860704788ED00E000100240FFFFF6EA63
:1019E00008ED00E000000000000000000102030418
:1019F00006070809A0860100400D0300801A0600B2
:101A000000350C0040420F0080841E0000093D009C
:101A100000127A000024F40000366E010048E8014C
:101A2000006CDC0219E050F8042BD30744BFA9F185
:101A300001039A18091F0023042942F8043BF9D234
:101A40005FEA817C134604D54FF0000CA2F800C079
:101A50009B1CC90744BF0021197050F8041B0029C2
:101A6000E1D1704710B450F8041B79B102684368A3
:101A700002440830DC0744BFA9F10104E31852F81E
:101A8000044B43F8044B091FF9D1ECE710BC704735
:101A900010B5074979441831064C7C44163404E0EB
:101AA0000A68081D114488470146A142F8D110BDBB
:101AB0002C0000004C0000004EF68851CEF20001D0
:101AC000086840F470000860BFF34F8FBFF36F8F5A
:101AD0004FF00070E1EE100A7047000049FFFFFF71
:101AE00080000000100400200000000079FFFFFFCC
:101AF0001000000084000000000000200000000032
:101B000000F00BF8002801D0FFF7C2FF0020AFF370
:101B10000080FFF743FD00F002F80120704700F05D
:101B200001B800000746384600F002F8FBE7000065
:101B300080B5AFF30080024A11001820ABBEFBE76E
:101B4000260002007047FEE7FEE7FEE7FEE770476B
:101B50007047704700F000B8024841680278891861
:101B6000416070470000002001488047014800475D
:101B700099190008891B00080100000000000000FE
:101B80001000000000093D00AFF30080FFF794FF54
:101B9000FFF7B6FF0000000001020304FFF7FEBFDD
:101BA000FFF7FEBFFFF7FEBFFFF7FEBFFFF7FEBF69
:101BB000FFF7FEBFFFF7FEBFFFF7FEBFFFF7FEBF59
:101BC000FFF7FEBFFFF7FEBFFFF7FEBFFFF7FEBF49
:101BD000FFF7FEBFFFF7FEBFFFF7FEBFFFF7FEBF39
:101BE000FFF7FEBFFFF7FEBFFFF7FEBFFFF7FEBF29
:101BF000FFF7FEBFFFF7FEBFFFF7FEBFFFF7FEBF19
:101C0000FFF7FEBFFFF7FEBFFFF7FEBFFFF7FEBF08
:101C1000FFF7FEBFFFF7FEBFFFF7FEBFFFF7FEBFF8
:101C2000FFF7FEBFFFF7FEBFFFF7FEBFFFF7FEBFE8
:101C3000FFF7FEBFFFF7FEBFFFF7FEBFFFF7FEBFD8
:101C4000FFF7FEBFFFF7FEBFFFF7FEBFFFF7FEBFC8
:101C5000FFF7FEBFFFF7FEBFFFF7FEBFFFF7FEBFB8
:101C6000FFF7FEBFFFF7FEBFFFF7FEBFFFF7FEBFA8
:101C7000FFF7FEBFFFF7FEBFFFF7FEBFFFF7FEBF98
:101C8000FFF7FEBFFFF7FEBFFFF7FEBFFFF7FEBF88
:101C9000FFF7FEBFFFF7FEBFFFF7FEBFFFF7FEBF78
:101CA000FFF7FEBFFFF7FEBFFFF7FEBFFFF7FEBF68
:101CB000FFF7FEBFFFF7FEBFFFF7FEBFFFF7FEBF58
:101CC000FFF7FEBFFFF7FEBFFFF7FEBFFFF7FEBF48
:101CD000FFF7FEBFFFF7FEBFFFF7FEBFFFF7FEBF38
:0400000508001B894B
:00000001FF
