:020000040800F2
:1000000010040020711500089115000893150008D0
:1000100000000000000000000000000000000000E0
:10002000000000000000000000000000951500081E
:100030000000000000000000971500089915000856
:1000400033080008A7080008FB0D0008EB0F0008A4
:100050004F1500085B150008C5150008C7150008F6
:10006000C9150008CB150008CD150008CF150008EC
:10007000D1150008D315000800000000D5150008B0
:1000800000000000D715000800000000000000007C
:10009000D915000800000000DB150008DD15000878
:1000A000DF150008E1150008E3150008E515000854
:1000B000E7150008E9150008EB150008ED15000824
:1000C000FEB5040055D0B44DE8680C210140009104
:1000D000E86880214902084001902078C0070DD5CA
:1000E0000098082804D00C2867D10198884264D170
:1000F0002868800302D5606800283AD020788007FD
:100100002AD5E0680921C943009A042A05D00C2A9F
:1001100001D1019A002A00D08DE02A68520701D54A
:10012000002826D06A68BC4B1340226912021A4389
:100130006A602A6811400843286000F0D5FAB74980
:10014000EA681206120F895CC840B54908600020B1
:1001500000F02CFB01002FD12078C00600D476E1FE
:100160000098002800D08AE02868800503D5E0695F
:10017000002800D145E16868AC490140606A084345
:10018000686068680002000A216A09060143696024
:100190000120616A490B491C8840C0039F49EA68F5
:1001A0001206120F895CC8409D490860002000F0CB
:1001B000FDFA010000D14AE1FEBD6068884201D12C
:1001C00028680BE0A021C9028842286808D1802154
:1001D000C9020143296028688021490201430BE0DC
:1001E0009349014029602868802149020840029013
:1001F000029828688F4901402960606800280DD066
:1002000000F0F6FA06002868800300D576E700F0D3
:10021000EFFA801B6528F6D30320FEBD00F0E8FA54
:1002200006002868800300D468E700F0E1FA801B2C
:100230006528F6D3F0E7002810D02A68114008435B
:10024000286000F0D5FA06002868400700D5DAE0FB
:1002500000F0CEFA801B0228F6D9DDE728680121DC
:100260008843286000F0C4FA06002868400700D4DC
:1002700072E700F0BDFA801B0228F6D9CCE7E069EE
:100280000028286816D0A90D0143296000F0B0FAB3
:1002900006002868800500D5C4E000F0A9FA801B9C
:1002A0000228F6D9B8E700F0A3FA801B022800D88C
:1002B000DBE0B1E7AB490140296000F099FA0600A4
:1002C0002868800500D4C2E000F092FA801B022862
:1002D000F6D9A1E701218843286500F089FA0600D4
:1002E000286D800700D4C4E000F082FA801B022849
:1002F000F6D991E79C4800290CD0A022D200914267
:1003000008D1286D290D01432965286DA90D0143E8
:10031000296506E0296D934A0A402A65296D08403F
:100320002865A06800280DD000F062FA0600286D4C
:10033000800500D5C7E000F05BFA801B8B4988423E
:10034000F5D369E700F054FA0600286D800500D463
:10035000B9E000F04DFA801B84498842F5D35BE791
:1003600000F046FA801B022800D8C9E054E70122B9
:100370009143A96001687E4A0A40026000F038FAA1
:100380000600A868800700D4BEE000F031FA801BA8
:100390000228F6D940E700BF0010024000F028FA1A
:1003A000801B022800D8C0E036E700F021FA801B4D
:1003B000022800D8CFE02FE70140296000F018FAAA
:1003C00006002868800100D4C9E000F011FA801B03
:1003D0000228F6D920E7012813D0E86880214902D5
:1003E0000140E26A91420CD1F02189030140226B65
:1003F000914206D1C02109040140606B814200D1C5
:10040000ADE00120FEBD686803490140206900029B
:1004100008436860A0E600BFFFE0FFFF501400083B
:100420000C0000206868014906E000BFFF1FFFFFC5
:10043000FFFFFEFFFFFFFBFF0140606A08436860AB
:1004400068680002000A216A090601436960207891
:1004500000070ED560690028286D00D13AE7012118
:100460000143296500F0C4F90600286D800700D417
:1004700019E7207840072CD5002780204005A96B7C
:10048000014003D1A96B0843A86301279348006882
:10049000C00512D491480068A90D01438F4801603E
:1004A00000F0A6F906008D480068C00505D400F0EC
:1004B0009FF9801B6528F6D3AEE6A168A80D81429E
:1004C00000D017E721E7002F03D0A86B8449014033
:1004D000A9632078800617D58248A1690029A968F8
:1004E00000D144E701220A43AA60696B01220A4352
:1004F0006A630168420C0A43026000F079F9060061
:10050000A868800700D42BE7A06A002827D00099AC
:100510000C2900D15FE78F490228286800D04BE7FB
:100520000140296000F064F906002868800100D5C8
:1005300034E7E86891490140E06A0843216B0143D0
:10054000606B0843E8602868802149040143296002
:1005500000F04EF906002868800100D425E700204D
:10056000FEBD0000FFFEFFFFFFFBFFFF8913000041
:10057000FFDFFFFFF2B582B004002FD00127FF4359
:1005800001257F480068284088420AD27C480068DC
:10059000384001437A480160006828400299884247
:1005A0001CD1784E2078800705D5F068F02188436B
:1005B000A1680143F160206828406FD0606802287C
:1005C00002D13168890308E0032802D1316889012A
:1005D00003E00128316802D1490702D470E089059F
:1005E0006ED5F168032291430843F06000F000F9F2
:1005F000616802290ED10090F0680C2101400829A1
:100600004CD000F0F5F80099401A5F498842F3D3C6
:100610000320FEBD03290DD10090F0680C2101409C
:100620000C293BD000F0E4F80099401A5649884262
:10063000F3D3EDE70129009044D1F0680C2101408B
:1006400004292BD000F0D4F80099401A4E49884272
:10065000F3D3DDE72078400705D5F0684B4901402A
:10066000E0680843F0602078000706D5F068484944
:1006700001402069C0000843F06000F035F84549AA
:10068000F2681206120F895CC840434908600020D6
:1006900000F08CF8010000D10020FEBD029838491E
:1006A000096829408842D5D2354800680740029839
:1006B0003843334908600868054002988542C9D02C
:1006C0000120FEBDF0680C210140E7D000F090F859
:1006D0000099401A2C498842F4D399E700700040F1
:1006E000FFFFFFEF20000140F0B5264DE9682C4ADE
:1006F0009308102654080C200840042804D0082829
:1007000009D00C2809D01DE02868064001D0180047
:10071000F0BD1000F0BD2000F0BD22488F023F0F59
:10072000C05D0902890F491CEF68FF0301D56043D2
:1007300005E02C68264001D0584300E0504300F00B
:100740005DF8F0BD686801210004400F401C814045
:10075000C803F0BDFFFFFFFE0F48006812490F4AB3
:100760001268520505E00C4800680F490B4A1268F0
:100770009204520F895CC84070470000FFFF02FFDF
:10078000002002400010024089130000FFF8FFFF24
:10079000FFC7FFFF501400080C0000200C1002409F
:1007A0000024F40060140008BC15000838B50400EB
:1007B0000D4DFA208000297800F020F801000B4848
:1007C000006800F01BF800F053F800280AD1042C50
:1007D00008D2002221000020C04300F045F8AC60A0
:1007E000002032BD012032BD000000200C0000209E
:1007F00001484068704700BF00000020094214D043
:1008000088420FD30122030C01D1000412040023FB
:1008100000185B418B4200D35B1A5241F8D3190098
:100820001000704701000020704708B500F03AF84A
:1008300008BDFEE710B5C20018231340FF249C40FA
:10084000E2438907090E9940002804D5124B00079E
:10085000000F083800E0114B80088000181803686A
:100860001A401143016010BD80B5FFF7E3FF01BDE1
:1008700010B5401E80214904884201D3012010BDDB
:10088000074C606003210020C043FFF7D3FF002026
:10089000A0600721216010BD1CED00E000E400E035
:1008A00010E000E07047FEE738B5040014D02500E2
:1008B00070356868002803D12870200000F037FAEE
:1008C00024206860206801680122914301602000B3
:1008D00000F020F8012801D1012032BD606A002813
:1008E00002D0200000F028F920684168084A0A4038
:1008F0004260206881682A2291438160FFE7206876
:10090000016801220A430260200000F07BF932BD39
:10091000FFB7FFFFF8B505001022102300200024C8
:100920002E6837687D493940AF680F4329693943DC
:100930006F690F43E9693943316077687849394015
:10094000EF680F437760A969009176498E4203D022
:10095000009F296A39430091B76873493940009F65
:100960000F43B76071498E421ED17149C96C890726
:10097000890F04D0022925D03CD3032936E0012376
:100980006C4EE969D702B94200D090E0002B08D044
:10099000012B67D0022B68D0042B70D0082B74D0A9
:1009A0007BE0FFF7D9FE6CE095498E420CD160499F
:1009B000C96C0C270F401BD0042F1BD0082F01D06F
:1009C0000C2F13E0022318E056498E4215D15849E6
:1009D000CF6CC021090139400AD09701B94209D032
:1009E000D701B942EED0C0273F01B94204D004E09C
:1009F000002302E0042300E008234A498E42BFD1CD
:100A0000002B06D0022B11D0042B17D0082B18D0A6
:100A10007DE0FFF7A1FE00287AD06E687100891989
:100A2000884274D3310381420DD270E0404800689F
:100A3000024001D0A748F0E7A748EEE7FFF754FED1
:100A4000E9E7C80BE9E7030E0202700800218018ED
:100A500059413200002300F09BF9A0494118A04AF7
:100A6000914250E0FFF77FFE0BE069684808304B89
:100A70001B681A4001D09B4A0AE09B4A08E0FFF736
:100A800033FE696840004A0802E0696848081203BA
:100A90008018FFF7B3FE80B200E001240100103996
:100AA000B14234D206400007400F30432CE0002B07
:100AB00008D0012B09D0022B0AD0042B12D0082B0E
:100AC00016D01CE0FFF748FE0EE0FFF74CFE0BE0EF
:100AD00069684808164B1B681A4001D07D4A05E03A
:100AE0007D4A03E0FFF700FE69684A08801802E0CB
:100AF00069684808C019FFF781FE80B200E0012450
:100B000001001039B14202D22968C86000E0012416
:100B10000020286668662000F2BD0000F369FFEF40
:100B2000FFCFFFFF00480040FFF4FFFF0038014007
:100B300000100240F0FF00002421415CC90706D5E7
:100B400001684A68694B1340826A1A434A6024214B
:100B5000415C890706D501684A68654B1340C26A43
:100B60001A434A602421415C490706D501684A6856
:100B7000604B1340026B1A434A602421415C090711
:100B800006D501684A685C4B1340426B1A434A60C1
:100B90002421415CC90606D501688A68574B134079
:100BA000826B1A438A602421415C890606D501685C
:100BB0008A68534B1340C26B1A438A602421415CFC
:100BC000490611D501684A684E4B1340026C1A431E
:100BD0004A60026C80235B039A4205D14A684A4B03
:100BE0001340426C1A434A602421415C090606D531
:100BF00001684A68454B1340806C18434860704751
:100C000000440040F8B5040000257030C560FFF7CF
:100C1000EFFD06003E4F20680068000709D50097E9
:100C20003300002280218903200000F01DF80028F5
:100C30000DD12068006840070BD5009733000022D3
:100C40008021C903200000F00FF8002801D0032004
:100C5000F2BD202021007031486021007031886091
:100C6000702025540020F2BDF0B583B0089E00240A
:100C700005000F006846027001932868C06938407B
:100C8000B84201D1012000E000206946097888427D
:100C90001DD10020C0438642EFD0FFF7A9FD019986
:100CA000401A864201D3002EE7D128680168194A0C
:100CB0000A4002602868816801229143816028000F
:100CC000703020214160816004700320FEBD00204F
:100CD000FEBD000000093D000024F40000FDFFFF00
:100CE00000FD0F0000127A000048E801FFFFFDFF41
:100CF000FFFFFEFFFFFFFBFFFF7FFFFFFFEFFFFF99
:100D0000FFDFFFFFFFFFEFFFFFFF9FFFFFFFF7FF8B
:100D1000FFFFFF015FFEFFFF1A48016801220A433F
:100D200002604168802252050A434260704710B554
:100D300086B0040001A8142100F078F82068124958
:100D400088421CD11148C168802292020A43C260C5
:100D5000012102680A430260006801400091009886
:100D60000C200190022002900020039003200490A8
:100D70000420059001A9A020C00500F059F806B094
:100D800010BD000034100240004400402C1002400E
:100D9000124224D0994228D970B500251B4202D0B6
:100DA0000C00002109E00024012649186441944206
:100DB00000D3A41A7641F8D33100012601E0764130
:100DC00009D2001864416D41A41A9D41F7D2A418BC
:100DD0005D41B619F5D3300022002B0070BD1B42D7
:100DE000D8D108B500F000F908BD01D19042D3D2A6
:100DF00002000B00002100207047FEE7130030B412
:100E000014001500103902D310393CC0FCD2490738
:100E100000D30CC000D504C0890002D30280801C1E
:100E2000002900D5027030BC704700000022E5E7C1
:100E3000FFB502000024624832E0062603E0614E5E
:100E4000B242FAD105266F463F78BE402E43029D3E
:100E50002E600668019FFD432E404F68FF0302D5B8
:100E60003700019E3E43066046682E404F68BF0330
:100E700002D53700019E3E43466086682E404F688B
:100E8000FF0202D53700019E3E438660C6683540AA
:100E90004E68B60202D52E00019D3543C560641C24
:100EA0000E683500E54000D189E00125A5402E40BF
:100EB0000196019E002EF2D06E4667003770032621
:100EC0006F463F78BE40F74302974E68012E05D02B
:100ED000022E03D0112E01D0122E12D19768029E3D
:100EE0003E40B446CF686E463678B74066463743D4
:100EF00097605668AE434D68EF06FF0FA740374333
:100F00005760D668029D35408E686F463F78BE4078
:100F10002E43D6606D46A6006E704D68022D01D03E
:100F2000122D10D1E508AD00551903952F6A6D46B5
:100F30006D781C262E400F25B540AF430D69B54096
:100F40003D43039E35621668029D35400E79B60713
:100F5000B60F6F463F78BE402E4316604D68ED00D9
:100F60009DD51C4D2D6801262E431A4D2E601A4D1D
:100F7000A608B600AD1902952D680C266F46BC4632
:100F80007F783E4067463E706E4636780F27B74002
:100F9000BD43A026F605B24201D1002653E70F4E0D
:100FA000B24201D101264EE70D4EB24201D10226D6
:100FB00049E70C4EB24200D041E7032643E7FFBDAC
:100FC00000040140001C0050002A01D081617047DC
:100FD0008162704734100240080001400004005054
:100FE00000080050000C00507047FEE710B500F0FC
:100FF000F5F800F03BF800F06DF86C486C490160C2
:10100000E1214902416000218160C16001610C223F
:1010100042618161C16101624162FFF745FCA02428
:10102000E405012220212000FFF7CEFFC82000F0B8
:10103000E9F8002220212000FFF7C6FF642000F01D
:10104000E1F8012220212000FFF7BEFFC82000F0B8
:10105000D9F8002220212000FFF7B6FF642000F01D
:10106000D1F8C820400000F0CDF8DAE710B59CB008
:1010700005A83821FFF7DAFE68461421FFF7D6FEEF
:1010800013A82421FFF7D2FE4A4801684A4A0A40C1
:10109000C10C114301601020059001200C90002428
:1010A0000D94A02000020E900F9405A8FFF708F8F9
:1010B0000F20009001940294039404940021684648
:1010C000FFF758FA02201390179413A800F0AEF817
:1010D0001CB010BDF0B587B068461421FFF7A6FE1E
:1010E0000427364801683943016001683940059199
:1010F0000599802102680A43026002681140059147
:10110000059901260168314301600168314005916C
:101110000599022102680A430260026811400591A4
:101120000599082102680A430260006801400591A0
:10113000059800222021A020C005FFF745FF70037D
:1011400000901F4801900024029469461D48FFF753
:101150006FFE1D48009003250195029469461948C9
:10116000FFF766FE19480090019502946946A02099
:10117000C005FFF75DFE20200090019602940394C5
:101180006946A020C005FFF753FE11480090019565
:10119000029469460F48FFF74BFE009701950294B1
:1011A00069460D48FFF744FE07B0F0BD100400206B
:1011B0000044004000700040FFE7FFFF2C10024099
:1011C0000000211000080050FF1F0000D39F000006
:1011D000FFFF000000040050000C005010B5002478
:1011E0000748016840220A4302600020FFF7DEFA48
:1011F000002801D0012401E0FFF78EFD200010BD82
:101200000020024038B50500FFF7F2FA0400002084
:10121000C043854202D0044800782D18FFF7E8FA51
:10122000001BA842FAD331BD00000020F8B504002D
:10123000664D206882210901014000D18DE0002621
:1012400080204005A96B014003D1A96B0843A86326
:101250000126AF0D5E480068384045D15C48006803
:1012600038435B490860FFF7C3FA009058480068AC
:10127000384039D1FFF7BCFA0099401A6528F5D3F8
:101280000320F2BD2A6DC0208002104048D0C02249
:1012900092020A40904202D02178890608D4A168BF
:1012A000C02292020A4090423AD02068000537D509
:1012B000296D48480840296DFA020A432A65296DBC
:1012C000454A0A402A652865074029D0FFF790FA69
:1012D0000090286D800523D4FFF78AFA0099401A00
:1012E0003E498842F5D3CBE72968C02080030840F7
:1012F0006168C02292030A40904205D1A268C023CF
:101300009B0313409842BDD0C02080020840C022F9
:1013100092029042B6D128688003B3D50120F2BD75
:101320006068C02189020140C0229202914207D127
:1013300029682B4A0A40C0218903014011432960D2
:10134000286D6168C02292020A4002432A65002E7D
:1013500003D0A86B23490140A9632078C00705D5B5
:10136000E86C03218843E1680143E9642078800741
:1013700005D5E86C0C21884321690143E964207894
:10138000400705D5E86C1849014060690843E864E6
:101390002078000705D5E86C14490140A06908438E
:1013A000E8642078400605D5E86C11490140206AC0
:1013B0000843E8642078000605D5E86C0D49014033
:1013C000E0690843E8640020F2BD0000001002401C
:1013D00000700040FFFFFCFFFFFFF7FF89130000D4
:1013E000FFFFCFFFFFFFFFEFFFF3FFFFFFCFFFFF89
:1013F000FFFFFFFBFFFFF3FF0F480168820D0A4369
:101400000260C1680D4A0A40C26001680C4A0A4085
:10141000026081680122914381600168094A0A40A3
:101420000260C168084A0A40C26000210161802050
:101430000005064908607047001002400C40FF8814
:10144000F6FFF6FEFFFFFBFFFFFF02FF08ED00E0E7
:101450000000000000000000010203040607080964
:10146000030406080C1018203000000070B40100BE
:101470000122002313E00C68091D144202D04D46DE
:101480006D1E64192360241D001F0428FAD2250054
:10149000860701D52380AD1C104000D02B70086852
:1014A000091D0028E7D1080070BC704730B4012145
:1014B0000268001D002A0FD00368C3184468083072
:1014C0000C4202D04D466D1E64191D6825601B1D1F
:1014D000241D121FECD0F8E730BC704710B5074947
:1014E00079441831064C7C44163404E0081D0A681F
:1014F000891888470100A142F8D110BD08000000FA
:101500002800000069FFFFFF800000001004002099
:101510000000000099FFFFFF1000000084000000A1
:10152000000000200000000000F00BF8002801D0AF
:10153000FFF7D4FF002000BF00BFFFF757FD00F00A
:1015400002F80120704780B500F002F801BDFEE707
:101550000746384600F002F8FBE7FEE780B500BF1B
:1015600000BF024A11001820ABBEFBE726000200B4
:101570000148804701480047F9130008B1150008E9
:1015800002484168027889184160704700000020D5
:101590007047FEE77047704780B5FFF7F1FF01BD68
:1015A0000100000000000000040000000000200016
:1015B00000BF00BF00BF00BFFFF7B6FF0000000084
:1015C00001020304FEE7FEE7FEE7FEE7FEE7FEE7B3
:1015D000FEE7FEE7FEE7FEE7FEE7FEE7FEE7FEE7E3
:0E15E000FEE7FEE7FEE7FEE7FEE7FEE7FEE7BA
:04000005080015B129
:00000001FF
