:020000040800F2
:10000000B82000209D2300087523000877230008EE
:10001000792300087B2300087D23000800000000EE
:100020000000000000000000000000007F23000826
:1000300081230008000000008323000885230008B6
:10004000C1230008C5230008C9230008CD230008E8
:10005000D1230008D5230008D9230008DD23000898
:10006000E1230008E5230008E9230008ED23000848
:10007000F1230008F5230008F9230008FD230008F8
:100080000124000805240008092400080D240008A4
:100090001124000815240008192400081D24000854
:1000A0002124000825240008292400082D24000804
:1000B0003124000835240008392400083D240008B4
:1000C0004124000845240008492400084D24000864
:1000D0005124000855240008592400085D24000814
:1000E0006124000865240008692400086D240008C4
:1000F0007124000875240008792400087D24000874
:100100008124000885240008892400088D24000823
:100110009124000895240008992400089D240008D3
:10012000A1240008A5240008A9240008AD24000883
:10013000B1240008B5240008B9240008BD24000833
:10014000C1240008C5240008C9240008CD240008E3
:10015000D1240008D5240008D9240008DD24000893
:10016000E1240008E5240008E9240008ED24000843
:10017000F1240008F5240008F9240008000000001C
:10018000FD24000801250008F8B50500002D01D167
:10019000012068E3DFF81009046814F00C04DFF8AC
:1001A0001409066816F003062878C00640F1C180DD
:1001B000002C05D00C2C40F08580012E40F0828070
:1001C000DFF884090068800704D5A869002801D1F8
:1001D000012048E3DFF870090068000705D5DFF863
:1001E0006809006810F0F00005E0DFF858090068C1
:1001F000000910F0F000296A88423DD2286A00F018
:100200005BFC002801D001202DE3DFF83C090068E9
:1002100050F00800DFF830190860DFF82C09016899
:1002200031F0F001286A0143DFF81C090160DFF8B2
:100230001C09006830F47F40E96950EA0120DFF8CA
:100240000C19086000F0BFFBDFF80419DFF858282C
:100250001268C2F30312895C11F01F01C840DFF875
:100260004C180860DFF84808006800F089FCC0B24C
:1002700000285ED0C0B2F6E2DFF8CC08006850F08B
:100280000800DFF8C4180860DFF8BC08016831F026
:10029000F001286A0143DFF8B0080160DFF8AC081C
:1002A000006830F47F40E96950EA0120DFF89C18CB
:1002B0000860002CC6D1286A00F0FEFB0028C1D0DF
:1002C0000120D0E2A869002846D0DFF87C08006849
:1002D00050F00100DFF87018086000F07FFC0700A4
:1002E000DFF864080068800706D400F077FCC01BC4
:1002F0000328F5D30320B6E2DFF84C08006850F07D
:100300000800DFF844180860DFF83C08016831F0A5
:10031000F001286A0143DFF830080160DFF82C089B
:10032000006830F47F40E96950EA0120DFF81C18CA
:1003300008602878C00779D5082C03D00C2C22D16E
:10034000032E20D1DFF80008006880036ED56868AE
:1003500000286BD1012086E2DFF8EC070068400836
:100360004000DFF8E417086000F038FC0700DFF811
:10037000D80700688007DCD500F030FCC01B0328DC
:10038000F5D303206FE26868B0F5803F08D1DFF84D
:10039000B807006850F48030DFF8AC17086024E03C
:1003A0006868B0F5A02F10D1DFF89C07006850F402
:1003B0008020DFF894170860DFF88C07006850F49D
:1003C0008030DFF8841708600FE0DFF87C070068F2
:1003D00030F48030DFF870170860DFF86C070068D1
:1003E00030F48020DFF860170860686800280ED0BD
:1003F00000F0F4FB0700DFF850070068800315D415
:1004000000F0ECFBC01B6528F5D303202BE200F0C5
:10041000E5FB0700DFF830070068800306D500F031
:10042000DDFBC01B6528F5D303201CE2287880077C
:100430001AD5042C03D00C2C33D1022E31D1DFF885
:1004400008070068400504D5E868002801D10120AC
:1004500009E2DFF8F806006830F0F850296950EA40
:100460000160DFF8E8160860287800076DD5686934
:10047000002853D0DFF8CC06006850F00100DFF808
:10048000C416086000F0AAFB0700DFF8B806006891
:1004900080075AD400F0A2FBC01B0328F5D3032029
:1004A000E1E1E868002822D0DFF89C06006850F4FB
:1004B0008070DFF89416086000F090FB0700DFF80A
:1004C00088060068400506D400F088FBC01B03289E
:1004D000F5D30320C7E1DFF87406006830F0F85068
:1004E000296950EA0160DFF864160860BCE7DFF8AC
:1004F0005806006830F48070DFF84C16086000F091
:100500006DFB0700DFF8400600684005ACD500F041
:1005100065FBC01B0328F5D30320A4E1DFF8240604
:10052000006840084000DFF81C16086000F056FB29
:100530000700DFF810060068800706D500F04EFBC4
:10054000C01B0328F5D303208DE12878400740F134
:1005500092800026DFF8FC050068C0000FD4DFF8A9
:10056000F405006850F08050DFF8E8150860DFF807
:10057000E405006810F08050009000980126DFF834
:10058000D8050068C00516D4DFF8CC05006850F423
:100590008070DFF8C415086000F020FB0700DFF86A
:1005A000B8050068C00506D400F018FBC01B03287E
:1005B000F5D3032057E1A868012808D1DFF89C058E
:1005C000006850F00100DFF89415086023E0A86887
:1005D000052810D1DFF88405006850F00400DFF82A
:1005E0007C150860DFF87405006850F00100DFF842
:1005F0006C1508600FE0DFF86405006840084000F3
:10060000DFF858150860DFF85405006830F0040082
:10061000DFF848150860A868002810D000F0DEFA5E
:100620000700DFF838050068800719D400F0D6FA13
:10063000C01B41F289318842F3D3032013E100F05B
:10064000CDFA0700DFF814050068800708D500F030
:10065000C5FAC01B41F289318842F3D3032002E17D
:10066000F6B2012E07D1DFF8EC04006830F08050BC
:10067000DFF8E0140860A86A002800F0F380A86A98
:10068000022840F0BD80DFF82C04066816F0030055
:10069000E96A884228D116F07000296B491EB0EB38
:1006A000011F21D116F4FE40696BB0EB012F1BD165
:1006B000A86B072801D1002000E0012016F40031CA
:1006C000814211D116F4C000E96B891E0905490D5C
:1006D0004905884208D116F0C066286C801E0006C5
:1006E00010F07E40864267D00C2C63D0DFF85804AF
:1006F0000068400104D4DFF850040068C00001D550
:100700000120B0E0DFF84004006830F08070DFF8CE
:100710003814086000F062FA0700DFF82C04006863
:10072000800106D500F05AFAC01B0328F5D3032038
:1007300099E0DFF880030168DFF824040140E86AEB
:100740000143286B401E51EA0011686B51EA0021F9
:10075000E86B801E0005400D40050143286C801E9B
:10076000000610F07E400143A86B000951EA4041A9
:10077000DFF840030160DFF8D003006850F08070BC
:10078000DFF8C4130860DFF82C03006850F08070B5
:10079000DFF82013086000F021FA0700DFF8A80353
:1007A000006880015ED400F019FAC01B0328F5D35D
:1007B000032058E0012056E0DFF88C030068800138
:1007C00050D4DFF88403006850F08070DFF87813AD
:1007D0000860DFF8E002006850F08070DFF8D412A3
:1007E000086000F0FBF90700DFF85C030068800197
:1007F00038D400F0F3F9C01B0328F5D3032032E00E
:100800000C2C2DD0DFF84003006830F08070DFF84A
:1008100038130860DFF83003006810F0205F07D15C
:10082000DFF89002006880088000DFF88812086016
:10083000DFF880020168DFF82C030140DFF8740262
:10084000016000F0CBF90700DFF8FC0200688001CE
:1008500008D500F0C3F9C01B0328F5D3032002E03C
:10086000012000E00020F2BD70B504000D00002C56
:1008700001D10120A6E0DFF8F002006810F00700C7
:10088000A84211D2DFF8E0020068C008C000284387
:10089000DFF8D4120860DFF8D002006810F007001B
:1008A000A84201D001208DE02078C0073CD56068C7
:1008B000032805D17B480068800119D4012081E01C
:1008C0006068022805D177480068800310D40120B1
:1008D00078E06068002805D172480068800707D476
:1008E00001206FE06F480068400501D4012069E0F5
:1008F0006D48016889088900606801436A480160A1
:1009000000F06CF906006848006810F00C0061689F
:10091000B0EB810F08D000F061F9801B41F2893102
:100920008842F0D303204DE02078800707D55E4849
:10093000016831F0F001A06801435B480160DFF815
:100940002802006810F00700854211D2DFF8180273
:100950000068C008C0002843DFF80C120860DFF808
:100960000802006810F00700A84201D0012029E029
:100970002078400707D54C48016831F4E061E06811
:100980000143494801602078000708D546480068BF
:1009900030F46050216950EAC1004349086000F01A
:1009A00012F8DFF8AC11404A1268C2F30312895CF6
:1009B00011F01F01C8403D4908603D48006800F043
:1009C000DFF8C0B270BD002200213748006810F087
:1009D0000C00384B1B6813F00303002803D00C28CD
:1009E00015D1012B13D12F4A1268120704D4554A8E
:1009F0001268C2F3032203E02A4A1268C2F3031208
:100A00005B4B53F82220002808D1110006E004288F
:100A100001D1584902E0082800D157490C2820D1BB
:100A20002448006810F00300022802D0032802D0F6
:100A300003E0504A01E0504AFFE71E480068C0F357
:100A40000211491C1B480068C0F306204243B2FB58
:100A5000F1F218480068C0F34160401C4000B2FB4E
:100A6000F0F10800704711480068704780B5FFF743
:100A7000FAFF42493D4A1268C2F30222895C11F032
:100A80001F01C84002BD80B5FFF7EDFF3B49374A63
:100A90001268C2F3C222895C11F01F01C84002BD76
:100AA0000000000000100240081002402C0000204E
:100AB000280000200C10024038B50400002525480D
:100AC0000068C00002D500F08FF813E021480068EC
:100AD00050F080501F4908601E48006810F0805098
:100AE0000090009800F080F81A49096831F08051B0
:100AF000184A1160B0F5007F07D1812C10D3A12CCA
:100B000001D302250CE001250AE0812C01D3032545
:100B100006E0802C01D1022502E0702C00D10125D5
:100B200011480068C008C00028430F4908600E48FB
:100B3000006810F00700A84201D0012000E000206A
:100B400032BD000094100240001002400410024028
:100B50008C230008581002400070004090100240A2
:100B60008C809DF9FFFFEEFE00200240081002403D
:100B70004C2200080024F40000127A00B823000878
:100B800038B5040000251248007800281CD04FF426
:100B90007A700F490978B0FBF1F00E490968B1FB92
:100BA000F0F000F0E3F800280CD1102C08D200225D
:100BB00021005FF0FF3000F0C8F80748046004E04F
:100BC000012502E0012500E001252800C0B232BD68
:100BD000300000202C000020280000200148006880
:100BE000704700BFB4000020DFF89000006810F4E8
:100BF000C0607047B0F5007F2BD1DFF8800000683F
:100C000010F4C060B0F5007F35D0DFF870000068E8
:100C100030F4C06050F40070DFF860100860DFF856
:100C20006000016832204143DFF85800B1FBF0F06A
:100C3000401C00E0401EDFF850100968490501D54E
:100C40000028F7D1DFF840000068400513D50320E5
:100C500012E0DFF82800006810F4C060B0F5806F83
:100C600009D0DFF81800006830F4C06050F48060EC
:100C7000DFF8081008600020704700000070004096
:100C80002C00002040420F001470004010F00700BC
:100C900038490A684FF6FF010A40374951EA0021F6
:100CA0000A4334480260704732480068C0F30220AB
:100CB0007047000040B2002804D409012F4A40B216
:100CC000115407E009012E4A40B210F00F00104401
:100CD00000F8041C704710B410F00700D0F10703AF
:100CE000052B01D3042301E0D0F10703041D072CD9
:100CF00001D2002000E0C01E012414FA03F35B1EA1
:100D000019408140012313FA00F0401E10400843AF
:100D100010BC704780B5411EB1F1807F01D3012026
:100D20000EE0401E174908600F215FF0FF30FFF70B
:100D3000C1FF002014490860072014490860002002
:100D400002BD80B5FFF7A2FF01BD70B504000D0024
:100D500016000020FFF7A8FF32002900FFF7BBFFB5
:100D60000100200040B2FFF7A5FF70BD80B5FFF77E
:100D7000D1FF02BD0CED00E00000FA0500E400E048
:100D800018ED00E014E000E018E000E010E000E002
:100D90002DE9F04182B005000024002628680005F6
:100DA00033D5686E002812D0B0F5800F15D0B0F59D
:100DB000000F03D0B0F5400F16D016E0DFF828047E
:100DC000006850F48030DFF8201408600EE0002145
:100DD000281D00F013FA040008E0002115F120009E
:100DE00000F0D6FA040001E000E00124E4B2002C97
:100DF0000AD1DFF8F803016831F44001686E01435D
:100E0000DFF8E803016000E026002868C00433D55D
:100E1000A86E002812D0B0F1807F15D0B0F1007F0D
:100E200003D0B0F1407F16D016E0DFF8BC030068B5
:100E300050F48030DFF8B01308600EE00021281D68
:100E400000F0DCF9040008E0002115F1200000F0BA
:100E50009FFA040001E000E00124E4B2002C0AD172
:100E6000DFF88803016831F04071A86E0143DFF8B4
:100E70007C03016000E026002868800340F1838045
:100E80000027DFF86C030068C0000FD4DFF86003B0
:100E9000006850F08050DFF858130860DFF8500306
:100EA000006810F08050009000980127DFF844039C
:100EB000006850F48070DFF83C130860FFF78EFE86
:100EC0008046DFF830030068C00506D4FFF786FED1
:100ED000B0EB08000328F4D30324E4B2002C46D17D
:100EE000DFF81403006810F4407000281BD0D5F818
:100EF0008410884217D0DFF80003006830F4407097
:100F0000DFF8F412096851F48031DFF8EC22116047
:100F1000DFF8E412096831F48031DFF8DC22116077
:100F2000DFF8D4120860C00710D5FFF757FE8046DF
:100F3000DFF8C4020068800708D4FFF74FFEB0EB6B
:100F4000080041F289318842F2D30324E4B2002C34
:100F50000BD1DFF8A402016831F44071D5F88400A8
:100F60000143DFF89402016002E0260000E0260061
:100F7000FFB2012F07D1DFF87802006830F080500F
:100F8000DFF86C1208602878C00709D5DFF85C022A
:100F9000016889088900A86B0143DFF850020160ED
:100FA0002878800709D5DFF84402016831F00C0188
:100FB000E86B0143DFF8340201602878400709D567
:100FC000DFF82802016831F03001286C0143DFF8B6
:100FD0001C0201602878000709D5DFF810020168BB
:100FE00031F0C001686C0143DFF80002016028782D
:100FF000C00609D5DFF8F401016831F44071A86C2E
:101000000143DFF8E80101602878800609D5DFF8A0
:10101000DC01016831F44061E86C0143DFF8CC0188
:1010200001602868800507D57048016831F44021C7
:10103000E86D01436D4801602868400507D56B489D
:10104000016831F44011286E014368480160287836
:10105000400607D56548016831F44051286D0143C9
:10106000624801602878000607D56048016831F4BD
:101070004041686D01435D4801602868C00507D59F
:101080005A48016831F44031A86D01435748016066
:10109000286880041FD55548016831F04061E86E2A
:1010A000014352480160E86EB0F1006F06D14E482E
:1010B000006850F480104C4908600CE0E86EB0F114
:1010C000806F08D10121281D00F098F80400E4B2D7
:1010D000002C00D02600286800031FD54348016873
:1010E00031F04061286F014340480160286FB0F142
:1010F000006F06D13C48006850F480103A490860FF
:101100000CE0286FB0F1806F08D10121281D00F09C
:1011100075F80400E4B2002C00D0260028684003D3
:101120001FD53248016831F04061686F01432F4894
:101130000160686FB0F1006F06D12B48006850F471
:101140008010294908600CE0686FB0F1806F08D109
:101150000121281D00F052F80400E4B2002C00D058
:1011600026002868400423D52048016831F040510A
:10117000A86F01431D480160A86FB0F1805F09D1DD
:101180000221281D00F03AF80400E4B2002C0FD030
:1011900026000DE0A86FB0F1005F09D1022115F122
:1011A000200000F0F5F80400E4B2002C00D0260086
:1011B0002868000407D50D48016831F08041E86FC8
:1011C00001430A4801602868C00308D50748016840
:1011D00021F00041D5F8800001430448016030004F
:1011E000C0B2BDE8F68100000C1002408810024039
:1011F000581002400070004090100240F8B5060000
:101200000D000024DFF8D002006810F0030F15D0A5
:10121000DFF8C402006810F00300316888420BD187
:101220003068002808D0DFF8B0020068C0F3021070
:10123000401C7168884235D0012433E030680128B1
:1012400004D01DD303280FD007D319E0DFF88402A0
:101250000068800700D4012413E0DFF878020068FA
:10126000400500D401240CE0DFF868020068800328
:1012700005D4DFF860020068400300D4012400E0D8
:101280000124E4B2002C0DD1DFF84C02016831F0EA
:101290007301306801437068401E51EA0011DFF8A5
:1012A00038020160E4B2002C6ED1DFF82802006839
:1012B00030F08060DFF81C120860FFF78FFC070039
:1012C000DFF810020068000105D5FFF787FCC01B9E
:1012D0000328F5D30324E4B2002C55D1002D10D1FE
:1012E000DFF8F8010168DFF8F8010140B06851EA61
:1012F0000021F068000951EA4041DFF8E001016097
:1013000026E0012D12D1DFF8D4010168DFF8D40105
:101310000140B06851EA00213069801E0005400D8F
:1013200040050143DFF8B401016011E0DFF8AC01D2
:101330000168DFF8B4010140B06851EA002170692A
:10134000801E000610F07E400143DFF8900101602E
:101350006048006850F080605E490860FFF73EFC1E
:1013600007005C480068000105D4FFF737FCC01B8C
:101370000328F6D30324E4B2002C05D157480168B2
:10138000B0690143554801602000C0B2F2BD0000C1
:10139000F8B506000D0000244F48006810F0030F58
:1013A00013D04D48006810F00300316888420AD11C
:1013B0003068002807D048480068C0F30210401C7D
:1013C000716888422FD001242DE03068012804D0B4
:1013D00019D303280DD006D315E03E4800688007D6
:1013E00000D4012410E03B480068400500D40124EB
:1013F0000AE038480068800304D436480068400397
:1014000000D4012400E00124E4B2002C0BD13248C6
:10141000016831F07301306801437068401E51EA81
:1014200000112D480160E4B2002C50D12948006819
:1014300030F0805027490860FFF7D0FB07002548AF
:101440000068800005D5FFF7C9FBC01B0328F6D351
:101450000324E4B2002C3AD1002D0DD123480168B9
:101460001F480140B06851EA0021F068000951EAC4
:1014700040411E4801600EE01C4801681A480140C6
:10148000B06851EA00213069801E000610F07E40ED
:101490000143164801600F48006850F080500D4924
:1014A0000860FFF79BFB07000A480068800005D42E
:1014B000FFF794FBC01B0328F6D30324E4B2002CEF
:1014C00005D10A480168706901430848016020009D
:1014D000C0B2F2BD001002400C10024010100240D9
:1014E000FF80FDFFFF809FFFFF80FFF91410024087
:1014F00010B50400002C01D1012035E0A0690028BE
:10150000FFD1606F002805D1002084F87000200012
:1015100000F0E9FA24206067206800684008400075
:1015200021680860200000F020F8012801D1012086
:101530001AE0606A002802D0200000F0BFF920689D
:10154000406830F49040216848602068806830F03E
:101550002A00216888602068006850F00100216836
:101560000860200000F017FA10BD38B5040000250F
:101570002068DFF820138842FFD0A168206901436A
:1015800060690143E069014320680268DFF80803ED
:1015900002401143206801602068416831F44051E5
:1015A000E068014320684160A1692068DFF8E42217
:1015B000904201D0206A01432068806830F4306096
:1015C0000143206881602068DFF8D012884216D17C
:1015D000DFF8CC02006810F00300002805D00228D4
:1015E00005D006D3032806D007E0012096E00220AC
:1015F00094E0042092E0082090E010208EE0206823
:10160000DFF8A012884216D1A548006810F00C003F
:10161000002806D0042808D0082804D00C2806D0BA
:1016200007E000207AE0022078E0042076E008203D
:1016300074E0102072E020689B49884216D19848D7
:10164000006810F03000002806D0102808D02028AC
:1016500004D0302806D007E000205FE002205DE0E3
:1016600004205BE0082059E0102057E020688F49F3
:10167000884216D18A48006810F0C000002806D0C1
:10168000402808D0802804D0C02806D007E00020D9
:1016900044E0022042E0042040E008203EE0102028
:1016A0003CE020688249884219D17D48006810F4E6
:1016B0004070002809D0B0F5807F0AD0B0F5007FD7
:1016C00005D0B0F5407F06D007E0002026E00220DC
:1016D00024E0042022E0082020E010201EE0206802
:1016E0006C49884219D16E48006810F440600028A7
:1016F00009D0B0F5806F0AD0B0F5006F05D0B0F515
:10170000406F06D007E0002008E0022006E0042039
:1017100004E0082002E0102000E0102021685D4A6B
:1017200091423DD1C0B2002806D0022808D004283A
:1017300008D008280AD00CE0FFF798F902000AE068
:101740005C4A08E0FFF73FF9020004E04FF4004272
:1017500001E000220125002A00F093806168032047
:1017600041438A4205D361684FF48050414391421E
:1017700001D2012585E04FF48073606840080021A4
:10178000E3FB02016268002300F0EAF9B0F5407162
:10179000494A914202D22168C86072E0012570E096
:1017A000E169B1F5004F3AD1C0B2002808D0012854
:1017B0000AD002280CD004280CD008280ED010E043
:1017C000FFF754F902000EE0FFF75DF902000AE0AE
:1017D000384A08E0FFF7F7F8020004E04FF400424F
:1017E00001E000220125002A4BD06068400810EB80
:1017F00042006168B0FBF1F080B2B0F110014FF629
:10180000F072914209D24FF6F0710140C0F34200EC
:10181000014389B22068C16033E0012531E0C0B2E4
:10182000002808D001280AD002280CD004280CD0A7
:1018300008280ED010E0FFF719F902000EE0FFF7BC
:1018400022F902000AE01B4A08E0FFF7BCF8020098
:1018500004E04FF4004201E000220125002A10D0EC
:10186000606812EB50026068B2FBF0F080B2B0F139
:1018700010014FF6F072914202D22168C86000E078
:10188000012500202066002060662800C0B232BD1D
:101890000000000000800040F369FFEF00380140C5
:1018A000881002400044004000480040004C0040C6
:1018B000005000400024F40000FD0F0090F82410B8
:1018C000C90707D501684A6832F40032816A0A43C1
:1018D00001684A6090F82410890707D501684A68B2
:1018E00032F48032C16A0A4301684A6090F82410D9
:1018F000490707D501684A6832F48022016B0A4320
:1019000001684A6090F82410090707D501684A6801
:1019100032F40042416B0A4301684A6090F8241097
:10192000C90607D501688A6832F48052816B0A4380
:1019300001688A6090F82410890607D501688A68D2
:1019400032F40052C16B0A4301688A6090F8241097
:10195000490613D501684A6832F48012016C0A43C3
:1019600001684A60016CB1F5801F07D101684A68BF
:1019700032F4C002416C0A4301684A6090F82410B6
:10198000090607D501684A6832F40022816C0A43CF
:1019900000684260704738B504000020E067FFF738
:1019A0001DF905002068006800070DD57FF07E4016
:1019B00000902B0000225FF40011200000F01FF8BF
:1019C000002801D0032019E02068006840070DD5E9
:1019D0007FF07E4000902B0000225FF48001200009
:1019E00000F00DF8002801D0032007E020206067F8
:1019F0002020A067002084F87000002032BD2DE96F
:101A0000F04105000E0017009846069C2868C06942
:101A10003040B04201D1012000E00020FFB2B842C6
:101A200042D114F1010FF1D0FFF7D8F8B0EB080064
:101A3000844201D3002C14D12868006830F4D0709F
:101A40002968086028688068400840002968886024
:101A5000202068672020A867002085F870000320F8
:101A600023E0286800684007D0D52868C0690005D1
:101A7000CCD54FF40060296808622868006830F40B
:101A8000D07029680860286880684008400029688C
:101A90008860202068672020A8672020E867002051
:101AA00085F87000032000E00020BDE8F081000010
:101AB00081B02748006850F001002549086024489B
:101AC000006810F00100009000982248006850F073
:101AD0008050204908601F48006810F08050009036
:101AE000009801B0704710B586B0040001A8142119
:101AF00000F0AEF820681849884226D115480068E1
:101B000050F40030134908601248006810F40030A7
:101B1000009000981148006850F001000F490860DB
:101B20000E48006810F00100009000980C20019011
:101B300002200290002003900320049007200590CB
:101B400001A95FF0904000F087F806B010BD0000DA
:101B50006010024058100240004400404C10024007
:101B60001B4213D1094236D12AB18446B0FBF2F0B0
:101B700002FB10C2704700F08DB9FCD30022002395
:101B800070470B000200002100207047904271EB6B
:101B9000030CF6D370B5B1FA81F4B3FA83F52C1BBC
:101BA000A340C4F1200532FA05F63343A2405FF0AA
:101BB0000046E64002E05B085FEA3202841A71EBFD
:101BC000030524BF204629467641F4D302000B00CA
:101BD0003000002170BD012ACFD970B5140C20D07F
:101BE000B1FA81F4B2FA82F5C4F120046419B4F1B7
:101BF0002006D6D3B2405FF00044F440002502E056
:101C000052085FEA3303C61A71EB020E24BF304656
:101C1000714664416D41F3D302000B00200029009E
:101C200070BD0C46B1FBF2F102FB11452D0445EAF3
:101C30001045B5FBF2F402FB145580B240EA0545AD
:101C4000B5FBF2F002FB105240EA044070BD000008
:101C5000002200F021B9000078B40200002440E026
:101C6000072604E0DFF8FC319A42F9D1062614F089
:101C70000303DBB29B009E403543DFF8EC312600C6
:101C8000B60843F82650DFF8E4311D6885434B68F9
:101C9000DB0300D50543DFF8D4311D60DFF8D03118
:101CA0001D6885434B689B0300D50543DFF8C031B1
:101CB0001D60DFF8C0311D6885434B68DB0200D52D
:101CC0000543DFF8B0311D60DFF8AC311D68854396
:101CD0004B689B0201D528430500DFF89C01056095
:101CE000641C0868E040002800F0B0800868012308
:101CF000A34018400028F3D04B68012B08D04B6854
:101D0000022B05D04B68112B02D04B68122B17D138
:101D1000956803262300DBB25B009E40B543CE6886
:101D20002300DBB25B009E4035439560556801237C
:101D3000A3409D434B68C3F30013A3401D4355606C
:101D40000B7913F00303032B09D1D56A0123A340B8
:101D50009D434B68C3F3C003A3401D43D562D568C0
:101D600003262300DBB25B009E40B5438E68230050
:101D7000DBB25B009E403543D5604B68022B02D03E
:101D80004B68122B17D12300DB0802EB83031D6A7B
:101D90000F2614F00703DBB29B009E40B5430E698B
:101DA00014F00703DBB29B009E4035432300DB08A1
:101DB00002EB83031D62156803262300DBB25B0080
:101DC0009E40B5430E7916F003062300DBB25B009C
:101DD0009E40354315604B68DB007FF581AF274B94
:101DE0001B6853F00103254D2B60244B1B6813F037
:101DF00001030093009B1C4B2500AD0853F82550B0
:101E00000F2614F00303DBB29B009E40B543B2F1F2
:101E1000904F01D100262AE7194B9A4201D10126A1
:101E200025E7184B9A4201D1022620E7164B9A4229
:101E300001D103261BE7154B9A4201D1042616E770
:101E4000134B9A427FF40EAF052610E771BC704722
:101E5000D2B2002A02D089B2816101E089B28162E6
:101E600070470000001800480800014000040140CD
:101E700004040140080401400C04014060100240C9
:101E80000004004800080048000C0048001000480A
:101E9000001400487047000000B500BF13009646CC
:101EA0009446103928BFA0E80C50FAD85FEA417C6C
:101EB00028BF0CC048BF40F8042BC90728BF20F832
:101EC000022B48BF00F8012B00BD000038B500F020
:101ED00039F900251B2400F041F800F0B8F800F0B3
:101EE0008EF800224FF480618E48FFF7B1FF002288
:101EF0004FF480518B48FFF7ABFF0A2094FBF0F0C2
:101F00000A2194FBF1F501FB1545874951F82000A2
:101F10008649086001224FF480618248FFF798FFEC
:101F20000A2000F029F900224FF480617D48FFF774
:101F30008FFF7D4850F825007C49086001224FF44E
:101F400080517848FFF784FF0A2000F015F900223D
:101F50004FF480517348FFF77BFFCEE700B5B9B06F
:101F600005A84421FFF774FE68461421FFF770FEB0
:101F700016A88821FFF76CFE022005904FF48070B0
:101F800008901020099002200F900220109001204C
:101F900011900A2012900720139002201490022022
:101FA000159005A8FEF7F0F8002801D000F0C8F859
:101FB0000F20009003200190002002900020039049
:101FC0000020049004216846FEF74EFC002801D052
:101FD00000F0B6F8022016900020259016A8FEF713
:101FE000D7FE002801D000F0ABF84FF40070FEF7E8
:101FF00001FE002801D000F0A3F839B000BD80B583
:102000004B484C4908605FF4E1304A494860002081
:102010004849886000204749C86000204549086158
:102020000C20444948610020424988610020414910
:10203000C86100203F49086200203E4948623D488F
:10204000FFF756FA002801D000F07AF801BD00B57C
:1020500087B001A81421FFF7FBFD3748006850F056
:102060000400354908603448006810F0040000900E
:1020700000983148006850F080002F4908602E48D1
:10208000006810F08000009000982B48006850F025
:102090000100294908602848006810F001000090FC
:1020A00000982548006850F0020023490860224843
:1020B000006810F002000090009800224FF4FF51D9
:1020C0005FF09040FFF7C4FE00224FF4A051154886
:1020D000FFF7BEFE4FF40050019018480290002018
:1020E000039001A90F48FFF7B7FD4FF4FF5001908F
:1020F00001200290002003900020049001A95FF0CD
:102100009040FFF7A9FD4FF4A050019001200290EC
:10211000002003900020049001A90248FFF79CFDD5
:1021200007B000BD0008004800000020140000486F
:1021300000440040340000204C10024000002110F8
:1021400072B6FEE710B500240A48006850F48070AB
:10215000084908600320FEF7F4FD0020FEF710FD9B
:10216000002801D0012401E0FFF7A2FC2000C0B24A
:1021700010BD00000020024038B50400FEF72EFD1F
:10218000050014F1010F02D0044800782418FEF76E
:1021900025FD401BA042FAD331BD00BF3000002016
:1021A0001348006850F47000114908601148006835
:1021B00050F001000F49086000200F4908600D48E9
:1021C00001680E4801400B4801604FF480500C49F3
:1021D00008600848006830F4802006490860002044
:1021E000084908605FF00060074908607047000018
:1021F00088ED00E00010024008100240FFFFF6EA00
:102200000C1002401810024008ED00E019E050F8F0
:10221000042BD30744BFA9F101039A18091F002317
:10222000042942F8043BF9D25FEA817C134604D5C5
:102230004FF0000CA2F800C09B1CC90744BF00214E
:10224000197050F8041B0029E1D17047A0860100E5
:10225000400D0300801A060000350C0040420F00BC
:1022600080841E0000093D0000127A000024F40062
:1022700000366E010048E801006CDC0210B450F832
:10228000041B79B10268436802440830DC0744BF8C
:10229000A9F10104E31852F8044B43F8044B091F59
:1022A000F9D1ECE710BC704710B5074979441831F3
:1022B000064C7C44163404E00A68081D1144884723
:1022C0000146A142F8D110BD2C0000004C000000D6
:1022D0004EF68851CEF20001086840F470000860A4
:1022E000BFF34F8FBFF36F8F4FF00070E1EE100A16
:1022F0007047000019FFFFFF840000003400002039
:102300000000000079FFFFFF34000000F80100002A
:10231000000000200000000000F00BF8002801D0B1
:10232000FFF7C2FF0020AFF30080FFF7CFFD00F002
:1023300002F80120704700F001B800000746384657
:1023400000F002F8FBE7000080B5AFF30080024A1E
:1023500011001820ABBEFBE726000200034800680E
:10236000034909784018014908607047B40000200B
:1023700030000020FEE7FEE7FEE7FEE7FEE77047DD
:102380007047704780B5FFF7E9FF01BD000000000E
:102390000000000001020304060708090148804705
:1023A00001480047A1210008AD230008AFF30080D9
:1023B000FFF78EFFFFF7B0FF0000000001020304EB
:1023C000FFF7FEBFFFF7FEBFFFF7FEBFFFF7FEBF41
:1023D000FFF7FEBFFFF7FEBFFFF7FEBFFFF7FEBF31
:1023E000FFF7FEBFFFF7FEBFFFF7FEBFFFF7FEBF21
:1023F000FFF7FEBFFFF7FEBFFFF7FEBFFFF7FEBF11
:10240000FFF7FEBFFFF7FEBFFFF7FEBFFFF7FEBF00
:10241000FFF7FEBFFFF7FEBFFFF7FEBFFFF7FEBFF0
:10242000FFF7FEBFFFF7FEBFFFF7FEBFFFF7FEBFE0
:10243000FFF7FEBFFFF7FEBFFFF7FEBFFFF7FEBFD0
:10244000FFF7FEBFFFF7FEBFFFF7FEBFFFF7FEBFC0
:10245000FFF7FEBFFFF7FEBFFFF7FEBFFFF7FEBFB0
:10246000FFF7FEBFFFF7FEBFFFF7FEBFFFF7FEBFA0
:10247000FFF7FEBFFFF7FEBFFFF7FEBFFFF7FEBF90
:10248000FFF7FEBFFFF7FEBFFFF7FEBFFFF7FEBF80
:10249000FFF7FEBFFFF7FEBFFFF7FEBFFFF7FEBF70
:1024A000FFF7FEBFFFF7FEBFFFF7FEBFFFF7FEBF60
:1024B000FFF7FEBFFFF7FEBFFFF7FEBFFFF7FEBF50
:1024C000FFF7FEBFFFF7FEBFFFF7FEBFFFF7FEBF40
:1024D000FFF7FEBFFFF7FEBFFFF7FEBFFFF7FEBF30
:1024E000FFF7FEBFFFF7FEBFFFF7FEBFFFF7FEBF20
:1024F000FFF7FEBFFFF7FEBFFFF7FEBFFFF7FEBF10
:10250000FFF7FEBFC00F000080010000C0160000F2
:10251000C013000080190000401B0000401F000095
:10252000C0010000C01F0000C01B00001000000020
:0825300000093D00010000005C
:04000005080023AD1F
:00000001FF
