:020000040800F2
:1000000010040020D1020008AD020008AF02000871
:10001000B1020008B3020008B502000800000000A9
:10002000000000000000000000000000B70200080F
:10003000B902000800000000BB020008BD02000871
:10004000F9020008FD02000801030008050300088A
:10005000090300080D030008110300081503000838
:10006000190300081D0300082103000825030008E8
:10007000290300082D030008310300083503000898
:10008000390300083D030008410300084503000848
:10009000490300084D0300085103000855030008F8
:1000A000590300085D0300086103000865030008A8
:1000B000690300086D030008710300087503000858
:1000C000790300087D030008810300088503000808
:1000D000890300088D0300089103000895030008B8
:1000E000990300089D030008A1030008A503000868
:1000F000A9030008AD030008B1030008B503000818
:10010000B9030008BD030008C1030008C5030008C7
:10011000C9030008CD030008D1030008D503000877
:10012000D9030008DD030008E1030008E503000827
:10013000E9030008ED030008F1030008F5030008D7
:10014000F9030008FD030008010400080504000885
:10015000090400080D040008110400081504000833
:10016000190400081D0400082104000825040008E3
:10017000290400082D0400083104000800000000D4
:1001800035040008390400080C49086840F00100F3
:10019000086000228A600A480A6802400A604FF438
:1001A0008050C8600022086820F4802008608A61BE
:1001B0004FF00060034908607047000000100240E3
:1001C000FFFFF6EA08ED00E000BF4FF000004FF03F
:1001D00000014FF0000200234FF00A0001464FEAF1
:1001E00001104FEA61004FF0080201FA02F041FAF3
:1001F00002F04FF000004FF000014FF00002E3E783
:1002000010B450F8041B79B1026843680244083006
:10021000DC0744BFA9F10104E31852F8044B43F88A
:10022000044B091FF9D1ECE710BC704710B5074922
:1002300079441831064C7C44163404E00A68081DE1
:10024000114488470146A142F8D110BD08000000C2
:1002500018000000ADFFFFFF0C0000009000000040
:10026000000000200000000000F00BF8002801D082
:10027000FFF7DCFF0020AFF30080FFF7A5FF00F0E1
:1002800002F80120704700F001B800000746384628
:1002900000F002F8FBE7000080B5AFF30080024AEF
:1002A00011001820ABBEFBE7260002007047FEE7F6
:1002B000FEE7FEE7FEE770477047704700F000B8C2
:1002C00002494A68087882184A6070470000002096
:1002D000014880470148004789010008E102000801
:1002E000AFF30080AFF30080FFF7BEFF0100000016
:1002F0000000000010000000FFF7FEBFFFF7FEBF88
:10030000FFF7FEBFFFF7FEBFFFF7FEBFFFF7FEBF21
:10031000FFF7FEBFFFF7FEBFFFF7FEBFFFF7FEBF11
:10032000FFF7FEBFFFF7FEBFFFF7FEBFFFF7FEBF01
:10033000FFF7FEBFFFF7FEBFFFF7FEBFFFF7FEBFF1
:10034000FFF7FEBFFFF7FEBFFFF7FEBFFFF7FEBFE1
:10035000FFF7FEBFFFF7FEBFFFF7FEBFFFF7FEBFD1
:10036000FFF7FEBFFFF7FEBFFFF7FEBFFFF7FEBFC1
:10037000FFF7FEBFFFF7FEBFFFF7FEBFFFF7FEBFB1
:10038000FFF7FEBFFFF7FEBFFFF7FEBFFFF7FEBFA1
:10039000FFF7FEBFFFF7FEBFFFF7FEBFFFF7FEBF91
:1003A000FFF7FEBFFFF7FEBFFFF7FEBFFFF7FEBF81
:1003B000FFF7FEBFFFF7FEBFFFF7FEBFFFF7FEBF71
:1003C000FFF7FEBFFFF7FEBFFFF7FEBFFFF7FEBF61
:1003D000FFF7FEBFFFF7FEBFFFF7FEBFFFF7FEBF51
:1003E000FFF7FEBFFFF7FEBFFFF7FEBFFFF7FEBF41
:1003F000FFF7FEBFFFF7FEBFFFF7FEBFFFF7FEBF31
:10040000FFF7FEBFFFF7FEBFFFF7FEBFFFF7FEBF20
:10041000FFF7FEBFFFF7FEBFFFF7FEBFFFF7FEBF10
:10042000FFF7FEBFFFF7FEBFFFF7FEBFFFF7FEBF00
:0C043000FFF7FEBFFFF7FEBFFFF7FEBFA7
:04000005080002E10C
:00000001FF
