:020000040800F2
:1000000010040020951C0008B51C0008B71C00084F
:1000100000000000000000000000000000000000E0
:10002000000000000000000000000000B91C0008F3
:100030000000000000000000BB1C0008BD1C000800
:100040001315000817150008731C00087F1C000812
:10005000E11C0008E31C0008E51C0008E71C000880
:10006000E91C0008EB1C0008ED1C0008EF1C000850
:10007000F11C0008F31C0008F51C0008F71C000820
:10008000F91C0008FB1C0008FD1C0008FF1C0008F0
:10009000011D0008031D0008051D0008071D0008BC
:1000A000091D00080B1D00080D1D00080F1D00088C
:1000B000111D0008131D0008151D000838B50400A7
:1000C00014D025007C356868002803D128702000F2
:1000D00000F048FD242068602068016801229143F7
:1000E0000160200000F020F8012801D1012032BD7C
:1000F000A06A002802D0200000F02EFC2068416891
:10010000084A0A404260206881682A22914381603F
:10011000FFE72068016801220A430260200000F026
:1001200085FC32BDFFB7FFFFF1B582B0002400258A
:10013000016808689C4A0240029880681043029A4D
:1001400012690243029840691043029AD26902433D
:100150000298406E104308604868944A0240029832
:10016000C0681043486002988069914A914203D068
:1001700002000298006A10438A68944B13401843A7
:100180008860C86A0F229043029A526A0243CA6288
:100190008F4880277F008F4A8F4B99421FD112686A
:1001A0009207920F5ED0022A27D05DD3032A5DD03A
:1001B00010267F4A914226D1310009D0022E00D16B
:1001C00095E0042E00D1C2E0082E00D1DCE0B1E3BE
:1001D00000F0D2FF0299496A002949D174E07F4BAF
:1001E00099420CD112680C2313403BD0042B3BD016
:1001F000082B02D00C2B39D0DAE70226D9E7934B33
:1002000099421AD100260299C969FA01914200D097
:10021000CBE2002E09D0022E00D1F3E1042E00D152
:100220003CE2082E00D174E2B0E200F0A5FF029992
:10023000496A002900D0B9E1E2E18F4B9942E1D04F
:100240005B4B9942B4D11268C0231B01134009D003
:10025000BA00934208D052009342CED0C02212017D
:100260009342C8E70026A4E70426A2E70826A0E7F1
:10027000012901D1022128E0022901D1042124E031
:10028000032901D1062120E0042901D108211CE025
:10029000052901D10A2118E0062901D10C2114E019
:1002A000072901D1102110E0082901D120210CE0FB
:1002B000092901D1402108E00A2901D1802104E067
:1002C0000B2901D1390000E0012100F08FFF002847
:1002D00000D130E30299496800914A0051188842E0
:1002E00004D300990903814200D38FE022E30299ED
:1002F000496A0029EED0012901D14008EAE7022924
:1003000001D18008E6E7032901D18D48E2E70429FD
:1003100001D1C008DEE7052901D18A48DAE70629BC
:1003200001D18948D6E7072901D10009D2E7082978
:1003300001D14009CEE7092901D18009CAE70A297C
:1003400001D1C009C6E70B29C4D1000AC2E700F0F9
:10035000D1FE0299496A0029B6D001298AD0022922
:100360008CD003298ED0042990D0052992D006295B
:1003700094D0072996D0082998D009299AD00A291B
:100380009CD00B29A0D19DE70298416A00293BD05F
:10039000012901D1100C9DE7022901D1500C99E7E8
:1003A000032907D17E4895E7F369FFCFFFCFFFFF11
:1003B00000800040042901D1900C8BE7052901D170
:1003C000784887E706290BD1774883E7FFF4FF11C8
:1003D0000024F40054100240003801400044004062
:1003E000072901D1D00C75E7082901D1100D71E75B
:1003F000092901D1500D6DE70A2901D1380069E7BB
:100400000B2901D1802065E7F80163E7002E06D0B3
:10041000022E07D0042E3BD0082E78D0BAE000F090
:10042000ABFE37E00298406A00282FD0012801D1A6
:100430007F4AA4E0022801D17E4AA0E0032801D12E
:100440007D4A9CE0042803D17C4A98E000480040A3
:10045000052801D17A4A92E0062801D1794A8EE036
:10046000072801D1784A8AE0082801D1774A86E036
:10047000092803D1764A82E0004C00400A2801D1C5
:10048000744A7CE00B2801D1734A78E0734A76E025
:1004900000F030FE0299496A002929D0012901D1D2
:1004A000022726E0022901D1042722E0032901D1F5
:1004B00006271EE0042901D108271AE0052901D1E9
:1004C0000A2716E0062901D10C2712E0072901D1DD
:1004D00010270EE0082901D120270AE0092901D1BF
:1004E000402706E00A2901D1802702E00B2900D02D
:1004F000012702994C68390000F078FE030E0202D1
:100500006008002180185941220000233EE0029833
:10051000406A002832D0012801D1BA032FE0022816
:1005200001D17A032BE0032801D1884A27E004286F
:1005300001D13A0323E0052808D1854A1FE000BF16
:10054000AAB02800006A180055581400062801D1E6
:10055000804A14E0072801D1FA0210E0082801D1EE
:10056000BA020CE0092801D17A0208E00A2801D178
:100570003A0204E00B2801D1FA0100E0FA0300235B
:1005800000984008002180185941009A00F049FE67
:10059000040000E00125994820189949C4E100BFF2
:1005A00055150000CC0C0000AA0A0000012901D159
:1005B0000227A4E0022901D10427A0E0032901D1E8
:1005C00006279CE0042901D1082798E0052901D1DC
:1005D0000A2794E0062901D10C2790E0072901D1D0
:1005E00010278CE0082901D1202788E0092901D1B2
:1005F000402784E00A2901D1802780E00B29FCD024
:1006000001277CE00299496A002941D0012940D0A4
:10061000022901D140083CE0032901D1794838E0A2
:10062000042901D1800834E0052919D1764830E049
:100630000000127A0000093D00AAB0280080841E44
:1006400000006A18005558140040420F0020A1070E
:100650000090D0030048E8010024F400000024F4D6
:10066000062901D1694814E0072901D1C00810E02A
:10067000082901D100090CE0092901D1400908E04D
:100680000A2901D1800904E00B2901D1C00900E049
:100690004000029949684A08801873E000F02AFD7A
:1006A0000299496A002929D0012901D1022726E0AF
:1006B000022901D1042722E0032901D106271EE0E7
:1006C000042901D108271AE0052901D10A2716E0DB
:1006D000062901D10C2712E0072901D110270EE0CD
:1006E000082901D120270AE0092901D1402706E085
:1006F0000A2901D1802702E00B2900D001270299A5
:100700004C68390000F072FD40006108401821007B
:1007100038E00298416A002930D0012901D11746FA
:100720002DE0022901D1570829E0032901D1874F83
:1007300025E0042901D1970821E0052901D1844F42
:100740001DE0062908D1834F19E000BF00551500B0
:1007500000CC0C0000AA0A00072901D1D7080EE03E
:10076000082901D117090AE0092901D1570906E032
:100770000A2901D1970902E00B2900D057004168EE
:100780004808381800F032FD84B200E0012520004E
:100790001038A349884200D3CCE021402007400F05
:1007A000084302990968C860C5E0002E06D0022EF1
:1007B00007D0042E44D0082E7CD0B1E000F0DCFC41
:1007C00040E00299496A002935D0012901D1400849
:1007D00031E0022901D180082DE0032901D10B4825
:1007E00029E0042901D1C00825E0052901D18D485F
:1007F00021E006290CD18C481DE000BF00FDFFFF61
:1008000000FD0F005461510000D43000AAB0280050
:10081000072901D100090EE0082901D140090AE0A9
:10082000092901D1800906E00A2901D1C00902E0A5
:100830000B2900D1000A029949684A0880186BE028
:1008400000F058FC0299496A002929D0012901D1F8
:10085000022726E0022901D1042722E0032901D141
:1008600006271EE0042901D108271AE0052901D135
:100870000A2716E0062901D10C2712E0072901D129
:1008800010270EE0082901D120270AE0092901D10B
:10089000402706E00A2901D1802702E00B2900D079
:1008A000012702994C68390000F0A0FC610840184B
:1008B000210031E00298416A002929D0012901D1A3
:1008C000570826E0022901D1970822E0032901D127
:1008D0008A4F1EE0042901D1D7081AE0052901D169
:1008E000874F16E0062901D1864F12E0072901D172
:1008F00017090EE0082901D157090AE0092901D199
:10090000970906E00A2904D00B2901D1802700E0CD
:10091000174641684808381800F068FC84B200E0C7
:100920000125200010383E49884203D20298006811
:10093000C46000E0012502986830012141800180F7
:100940000021416081602800FEBD0000AA2A00004D
:1009500098190000541500002821415CC90706D5EC
:1009600001684A68684B1340C26A1A434A602821EA
:10097000415C890706D501684A68644B1340026BE5
:100980001A434A602821415C490706D501684A6834
:100990005F4B1340426B1A434A602821415C0907B0
:1009A00006D501684A685B4B1340826B1A434A6064
:1009B0002821415CC90606D501688A68564B134058
:1009C000C26B1A438A602821415C890606D50168FA
:1009D0008A68524B1340026C1A438A602821415C9A
:1009E000490611D501684A684D4B1340426C1A43C1
:1009F0004A60426C80235B039A4205D14A68494BA6
:100A00001340826C1A434A602821415C090606D5CE
:100A100001684A68444B1340C06C184348607047F3
:100A2000F0FF0000006A180055581400F8B50400E3
:100A300000257C30C56000F029FC06003B4F206893
:100A40000068000709D50097330000228021890340
:100A5000200000F01DF800280DD120680068400734
:100A60000BD50097330000228021C903200000F03D
:100A70000FF8002801D00320F2BD202021007C3196
:100A8000486021007C3188607C2025540020F2BD24
:100A9000F0B583B0089E002405000F006846027080
:100AA00001932868C0693840B84201D1012000E0B4
:100AB00000206946097888421DD10020C043864243
:100AC000EFD000F0E3FB0199401A864201D3002EDB
:100AD000E7D128680168164A0A40026028688168E0
:100AE00001229143816028007C3020214160816097
:100AF00004700320FEBD0020FEBD0000551500005F
:100B0000CC0C0000AA0A0000FFFFFDFFFFFFFEFF64
:100B1000FFFFFBFFFF7FFFFFFFEFFFFFFFDFFFFF99
:100B2000FFFFEFFFFFFF9FFFFFFFF7FFFFFFFF014B
:100B30005FFEFFFF80B52148012142680A43426001
:100B400042681140009100998021490502680A43DA
:100B500002600068014000910098C020C00000F0D1
:100B6000ADFB01BD10B586B0040001A8142100F052
:100B7000CBFB2068124988421ED112498020800296
:100B80008A6802438A608A681040009000980120B9
:100B90000A6802430A6009680140009100990C212B
:100BA000019102210291039000210491059001A975
:100BB000A020C00500F0AAFB06B010BD3C1002400A
:100BC0000044004034100240F8B505001BD0B34C7F
:100BD0002878C00719D5A16838200840E168802727
:100BE000BF02102808D18807800F032806D0696843
:100BF0007808814232D139E00828F8D120680740CE
:100C000003D06868002800D175E1287880077AD57C
:100C1000A16838200840E268A14910284DD1920708
:100C2000920F022A4BD0E8680028206800D18AE0A1
:100C300001402869084320602068A10D014321601C
:100C400000F024FB06002068400500D555E100F0C7
:100C50001DFB801B0328F6D30320F2BDA022D20285
:100C6000914207D1216882000A432260216808432B
:100C7000206007E020688B490140216020688A4994
:100C800001402160686800280BD000F0FFFA0600E0
:100C900020683840B9D100F0F9FA801B6528F7D3F5
:100CA000DAE700F0F3FA060020683840ADD000F033
:100CB000EDFA801B6528F7D3CEE70028B3D1226870
:100CC000520502D5EA68002A3CD06268B04B134056
:100CD0006A6912021A43626000280ED1206801403E
:100CE000286908432060AB48012122689204520F12
:100CF000914000F07BFAA8490860A848006800F01D
:100D0000E1FB00281ED1287800070AD5A068382109
:100D10000140182926D1206E800702D5A869002835
:100D200010D02878400707D50027A0683821014057
:100D3000202939D1E06D800700D4F1E0A8680028AF
:100D400000D0EDE0D7E096490140216000F09EFA26
:100D5000060020684005D6D500F098FA801B0328CD
:100D6000F7D379E7A8690028206E0ED0012101434E
:100D7000216600F08BFA0600206E8007D1D400F0C7
:100D800085FA801B0328F7D366E701218843206694
:100D900000F07CFA0600206E8007C2D500F076FADB
:100DA000801B0328F7D357E7E06BC0000BD4E06B40
:100DB000802149050143E163E06B8021490508403A
:100DC00000900098012777480068C0050BD475484B
:100DD0000068A10D01437348016000F057FA060056
:100DE00070480068C00500D58FE000F04FFA801B06
:100DF0000328F5D330E70528E06D07D1042101432E
:100E0000E165E06D01210143E16506E001218843D0
:100E1000E065E06D04218843E065A86800280CD0F7
:100E200000F034FA0600E06D800773D400F02EFA6B
:100E3000801BAE498842F6D30EE700F027FA060081
:100E4000E06D800766D500F021FA801BA749884233
:100E5000F6D301E700F01AFA801B032871D3FBE6F2
:100E600000F014FA801B032800D28BE0F4E6014066
:100E70002160E06803218843E060E0689C4901400C
:100E8000E16000F003FA06002068800100D47DE0F4
:100E900000F0FCF9801B0328F6D3DDE600100240C9
:100EA000FFC7FFFFFFFFFEFFFFFFFBFF012822D070
:100EB000E0688107890F2A6A91421CD170210140A4
:100EC0006A6A914217D1FE21C9010140AA6A120241
:100ED000914210D1F82189030140EA6A91420AD176
:100EE000E021090501402A6B914204D1400F4007DF
:100EF000696B88424AD00120F2BD606824490140F4
:100F00006869000208436060FDE6A868012800D017
:100F100071E776E7002F03D0E06B96490140E1636B
:100F2000E869002832D0A16838220A40102ABDD0D2
:100F30009849022820689AD10140216000F0A6F962
:100F400006002068800185D4E06893490140286A42
:100F50000843696A0143A86A00020843E96A014339
:100F6000286B0843696B0143E160206880214904D4
:100F700001432160E068802149050143E16000F000
:100F800085F906002068800100D469E70020F2BDE1
:100F9000FF80FFFF0024F4000C000020040000206C
:100FA000FFFEFFFF00700040F2B582B0040039D0B0
:100FB0000727FF43794D28684007400F88423BD2FE
:100FC000286838400143296000F060F900902868E3
:100FD0004007400F029988422ED000F057F900993F
:100FE000401A42498842F2D30320FEBD00F04EF978
:100FF0000099401A3D49884241D3F5E7022802D1C1
:101000003168890103E0002803D1316849052FD4F4
:1010100008E0032803D1326E114029D102E0F26DBD
:10102000114025D10120FEBD00F030F90099401A91
:101030002E49884238D3D7E7206859490E0002214B
:1010400008420CD0400704D5B068E022D201024328
:10105000B260B068534A0240A0681043B060207884
:10106000C00713D560680128C8D131688903D9D574
:10107000B16839400843B06000F008F90090B068EA
:10108000382101406068C0008142AFD102982968D0
:101090004907490F88420DD2286807400298384313
:1010A000286000F0F3F8009028684007400F02998C
:1010B0008842B9D12078400705D5B0683A49014047
:1010C000E0680843B06000F015F83849B2681205CE
:1010D000120F9200895CC906C90EC84034490860E5
:1010E0003448006800F0EEF9FEBD000089130000EE
:1010F000FFFFFEEE30B50721304A294C3823A068A7
:10110000184007D1236810000122DB0A19408A40E9
:1011100011001CE05008A5681D40082D29D0A568C5
:101120001D40102D16D1E368E5682D092940491CA2
:101130007F259B079B0F032B00D0100000F056F873
:10114000E168090A0D406843E168490F491C00F055
:101150004DF830BDA0681840202802D18020000240
:1011600030BDA0680340182B02D1FA20C00130BD69
:10117000002030BDFFFFFFEF0F4801680C480068FA
:101180000F4A4904490F8900515CC906C90EC8407D
:1011900070470000FFFFFFFE8C80C111002002405D
:1011A00000100240FFF0FFFFFF8FFFFF301B000821
:1011B0000C00002004000020081002400024F4006D
:1011C0002C1C0008CA0F00D0494203105A400DD011
:1011D00004B500D3404200F009F8009AD20701D3C9
:1011E0004942124200D5404204BD0000094214D0D9
:1011F00088420FD30122030C01D100041204002302
:1012000000185B418B4200D35B1A5241F8D319009E
:101210001000704701000020704708B500F078F911
:1012200008BD124224D0994228D970B500251B422E
:1012300002D00C00002109E0002401264918644175
:10124000944200D3A41A7641F8D33100012601E07C
:10125000764109D2001864416D41A41A9D41F7D22C
:10126000A4185D41B619F5D3300022002B0070BDE3
:101270001B42D8D108B500F04DF908BD01D190420C
:10128000D3D202000B000021002070470148006803
:10129000704700BF0000002010B500240B48016813
:1012A000820D0A430260002000F00CF9002801D0F2
:1012B000012401E0FFF73EFC200010BD04490A684C
:1012C000044B1340184308607047000000200240A0
:1012D00000000140FFF9FFFF130030B414001500B7
:1012E000103902D310393CC0FCD2490700D30CC0DE
:1012F00000D504C0890002D30280801C002900D5DB
:10130000027030BC704700000022E5E7FFB5020024
:101310000024032037E0052603E0644EB242FAD1F0
:1013200003266F463F78BE402E43029D2E60604DDF
:101330002E68019FFD432E404F68FF0302D5370002
:10134000019E3E435A4F3E607E682E404F68BF0369
:1013500002D53700019E3E43554F7E60554E36689C
:101360002E404F68FF0202D53700019E3E43514F89
:101370003E607E6835404E68B60202D52E00019D63
:1013800035437D60641C0E683500E54000D186E081
:101390000125A5402E400196019E002EF2D04E68F8
:1013A000022E01D0122E1BD1E608B6009619029625
:1013B000366A0396A7001C263E406F463E70039E89
:1013C000B4466E4636780F27B7406646BE43B446ED
:1013D0000F696E463678B74066463743029E3762DD
:1013E000166803966E466700377037780326BE404E
:1013F000F7430297039F029E3E40B4464F68074062
:101400006E463678B7406646374317604E68012E01
:1014100005D0022E03D0112E01D0122E12D19768C2
:10142000029E3E40B446CF686E463678B740664668
:10143000374397605668AE434D68EF06FF0FA740ED
:1014400037435760D668029D35408E686F463F78B7
:10145000BE402E43D6604D68ED0093D5164DA608CC
:10146000B600AD1902952D68E70018263E406F467C
:101470003E706E4636780F27B740BD43A026F6056E
:10148000B24201D100264CE70C4EB24201D10126F6
:1014900047E70B4EB24200D03FE7022641E7FFBDCF
:1014A000002A01D08161704781627047000C0050B2
:1014B00080180240001802406018024000040050EA
:1014C0000008005070B5050000240F4EB1680029D7
:1014D00016D0FA208000FFF789FE01000B48006853
:1014E000FFF784FE00F036F8002809D1042D07D25A
:1014F000002229000020C04300F028F8756000E0B9
:101500000124200070BD00BF000000200C0000205E
:101510007047FEE77047FEE710B5C200182313407E
:10152000FF249C40E2438907090E9940002801D41A
:10153000124B03E0124B0007000F083880088000B0
:10154000181803681A401143016010BD80B5FFF7F9
:10155000E3FF01BD10B5401E80214904884201D33C
:10156000012010BD074C606003210020C043FFF73D
:10157000D3FF0020A0600721216010BD00E400E03F
:101580001CED00E010E000E010B5FFF785FE00F074
:1015900048F800F074F8704C70482060E120400278
:1015A00060600020A060E06020610C216161A061AA
:1015B000E06120626062A0622000FEF77FFD0021F2
:1015C000200000F0FDF80021200000F013F92000B9
:1015D00000F0D8F8A024E405012220212000FFF724
:1015E0005FFFC82000F066F9002220212000FFF7ED
:1015F00057FF642000F05EF9012220212000FFF750
:101600004FFFC82000F056F9002220212000FFF7EC
:1016100047FF642000F04EF9C820400000F04AF96E
:10162000DAE730B59FB004A83821FFF76DFE6846B1
:101630001021FFF769FE12A83421FFF765FE802014
:10164000800000F04BF902240494E001079000258B
:101650000895402009900B9504A8FFF7B5FA0720DC
:10166000009001950295039500216846FFF79CFCC8
:101670001294149512A800F057F91FB030BDF0B5C0
:1016800087B068461421FFF73FFE04213448026802
:101690000A43026002681140059105990168202201
:1016A0000A43026001682022114005910599012733
:1016B00001683943016001683940059105990226A6
:1016C00001683143016001683140059105990821A5
:1016D00002680A43026000680140059105980022F3
:1016E0002021A020C005FFF7DBFE1E480090032448
:1016F00001940025029569461B48FFF707FE062066
:1017000000900194029569461848FFF7FFFD1848BC
:101710000090019402956946A020C005FFF7F6FDF0
:10172000202000900197029503966946A020C005ED
:10173000FFF7ECFD0F4800900194029569460E48B2
:10174000FFF7E4FD0D4800900194029569460C48AE
:10175000FFF7DCFD07B0F0BD10040020004400409E
:1017600034100240FF1F0000000800500014005019
:10177000D39F0000FFFF0000000400507F03000023
:10178000000C005030B57C21415C012901D10220C0
:1017900030BD01007C3101220A7024224A600268B7
:1017A000136814680125AC43146000224266244C7F
:1017B0001C4000680460202048600A70002030BD92
:1017C00070B504007C20205C012801D1022070BD8E
:1017D00025007C3501202870242068602068066878
:1017E000026801239A43026020688268D200D2080E
:1017F000114318E070B504007C20205C012801D161
:10180000022070BD25007C350120287024206860EE
:1018100020680668026801239A4302602068826893
:10182000084B134019438160200000F00DF8206838
:101830000660202068600020287070BD0000000055
:10184000FFFFFFDFFFFFFFF1F0B585B0040003A845
:1018500014A10CC90CC001A814A10CC90CC0606E65
:10186000002802D10120012515E0206881680901C6
:10187000490F00918068410F01AE03AF785CC00052
:10188000715CFFF79FFC05000098385CC000009970
:10189000715CFFF797FC210068314D80088005B02E
:1018A000F0BD00000101010307010000080402046B
:1018B0000801010138B50500FFF7E8FC040000202D
:1018C000C043854202D0044880682D18FFF7DEFC33
:1018D000001BA842FAD331BD0000002010B50E4C09
:1018E00021680E4A0A4002432260610D884210D1ED
:1018F0000B480068062148430A49FFF777FC401C63
:1019000000E0401E6169490503D50028F9D1032094
:1019100010BD002010BD000000700040FFF9FFFF67
:101920000C00002040420F00FEB5040000206A4673
:1019300010706E4D80277F0201262168890353D5E0
:1019400002903007296B014007D1296B01432963BD
:10195000296B084001900198029665480068A90D1E
:10196000014363480160FFF791FC01906048006803
:10197000C00511D4FFF78AFC0199401A0328F5D35A
:1019800006E0FFF783FC0199401A5A4988421BD3AD
:1019900003206946087020E0296DC02080000840BF
:1019A0000DD0216B88420AD0296D53480840296D1B
:1019B00039432965296D514A0A402A652865304016
:1019C00005D0FFF763FC0190286D8007D9D5286DFD
:1019D00049490140206B084328650298002803D03C
:1019E000286B4749014029632068064005D0A86C50
:1019F0000321884361680143A9642078800705D5E5
:101A0000A86C0C218843A1680143A9642078800652
:101A100005D5A86C3B490140E0680843A8642068EC
:101A2000800505D5A86C38490140A0690843A86421
:101A30002068400505D5A86C34490140E069084399
:101A4000A8642078400605D5A86C3149014020697A
:101A50000843A864B808216801400CD0A96C89002B
:101A60008908226A0A43AA64216A0204914202D1C7
:101A70002968394329602168090305D5A96C4022EA
:101A80009143626A0A43AA648102020223689B02AC
:101A90000BD5AE6C1F4B3340A66A1E43AE64A36ADF
:101AA000934202D12B680B432B6023681A400BD062
:101AB000AA6C194B1340E26A1A43AA64E26A8A428A
:101AC00002D12A6811432960216809050BD5A96C48
:101AD000124A0A4061691143A9646169814202D1D5
:101AE000286807432F6068460078FEBD0C1002404E
:101AF0000070004089130000FFFCFFFFFFFFFEFFA6
:101B0000FFFFFFEFFFF3FFFFFFFFF3FFFFFFCFFF3D
:101B1000FFCFFFFFFFFFBFFFFFFFFFFEFF3FFFFF06
:101B200080200005014908607047000008ED00E0D2
:101B300000000000000000000000000000000000A5
:101B40000000000000000000000000000000000095
:101B5000010000000200000003000000040000007B
:101B60000600000007000000080000000900000057
:101B700070B401000122002313E00C68091D144217
:101B800002D04D466D1E64192360241D001F0428D9
:101B9000FAD22500860701D52380AD1C104000D065
:101BA0002B700868091D0028E7D1080070BC704739
:101BB00030B401210268001D002A0FD00368C31849
:101BC000446808300C4202D04D466D1E64191D68F1
:101BD00025601B1D241D121FECD0F8E730BC704798
:101BE00010B5074979441831064C7C44163404E09A
:101BF000081D0A68891888470100A142F8D110BD64
:101C0000080000002800000069FFFFFF8C000000B2
:101C1000100400200000000099FFFFFF10000000EA
:101C2000A4000000000000200000000000000000F0
:101C300000000000000000000000000001000000A3
:101C400002000000030000000400000000F00BF898
:101C5000002801D0FFF7C4FF002000BF00BFFFF73E
:101C600093FC00F002F80120704780B500F002F804
:101C700001BDFEE70746384600F002F8FBE7FEE745
:101C800080B500BF00BF024A11001820ABBEFBE7C1
:101C9000260002000148804701480047211B000838
:101CA000D51C0008024801688268891801607047E5
:101CB000000000207047FEE77047704780B5FFF7CF
:101CC000F1FF01BD00000000040000000100000061
:101CD0000024F40000BF00BF00BF00BFFFF7B6FF45
:101CE000FEE7FEE7FEE7FEE7FEE7FEE7FEE7FEE7CC
:101CF000FEE7FEE7FEE7FEE7FEE7FEE7FEE7FEE7BC
:101D0000FEE7FEE7FEE7FEE7FEE7FEE7FEE7FEE7AB
:061D1000FEE7FEE7FEE71E
:0400000508001CD5FE
:00000001FF
