:020000040800F2
:1000000028040020DD340008B9340008BB3400089F
:10001000BD340008BF340008C134000800000000EF
:10002000000000000000000000000000C3340008D1
:10003000C534000800000000C7340008C9340008B7
:100040000135000805350008093500080D350008A0
:100050001135000815350008193500081D35000850
:100060002135000825350008293500082D35000800
:100070003135000835350008393500083D350008B0
:100080004135000845350008493500084D35000860
:100090005135000855350008593500085D35000810
:1000A0006135000865350008693500086D350008C0
:1000B0007135000875350008793500087D35000870
:1000C0008135000885350008893500088D35000820
:1000D0009135000895350008993500089D350008D0
:1000E000A1350008A5350008A9350008AD35000880
:1000F000B1350008B5350008B9350008BD35000830
:10010000C1350008C5350008C9350008CD350008DF
:10011000D1350008D5350008D9350008DD3500088F
:10012000E1350008E5350008E9350008ED3500083F
:10013000F1350008F5350008F9350008FD350008EF
:100140000136000805360008093600080D3600089B
:100150001136000815360008193600081D3600084B
:100160002136000825360008293600082D360008FB
:100170003136000835360008393600080000000026
:100180003D360008413600082DE9F84C2DED0C8B6A
:1001900082B041EC190B169C43EC1A2B0CB10020D9
:1001A000206051EC1A0B20F0000621F000470020DF
:1001B000874208BF864213D053EC192BDFF83C1658
:1001C00000F082FD0CD0DFF8301600F07DFD0BD181
:1001D00051EC1A0B48004015401C05D1090303D10E
:1001E00002B0DFF8181603E351EC190B4800401574
:1001F000401C0FD051EC190B21F00041002291421C
:1002000008BF904206D051EC1A0B48004015401C24
:1002100040F0F28051EC190B48004015401C05D10C
:10022000090318BF51EC190B40F0E08251EC1A0B96
:1002300048004015401C05D1090318BF51EC1A0BAA
:1002400040F0D48251EC1A0B480001244015401CA8
:1002500062D051EC1A0B4B0043EAD07342000026E7
:10026000B34208BFB24204D1B0EE4A8AF0EE6A8AC5
:1002700019E040F23345A5EB5352352A04DB00F078
:10028000000001F000410CE0202A03DD203AD140BB
:10029000914000E001D1002003E0002AC4BFD0401B
:1002A000904041EC180B53EC1A2B51EC180B00F05A
:1002B0000BFD18BF00244B0043EAD0734200B34249
:1002C00008BFB24204D1B0EE480AF0EE680A19E065
:1002D00040F23445A5EB5352352A04DB00F0000010
:1002E00001F000410CE0202A03DD203AD14091408A
:1002F00000E001D1002003E0002AC4BFD0409040BC
:1003000041EC100B44B153EC182B51EC100B00F0E6
:10031000DBFC0CBF0024012451EC190B48004015F4
:10032000401C0ED109030CD151EC190BC80F25D17B
:1003300053EC1A2BDA0F0CBF9FED8B0B9FED8C0B40
:1003400056E051EC1A0B48004015401C21D109031E
:100350001FD153EC192B23F00041B1F5801F22F07F
:10036000000022D20023994208BF9842009321D076
:100370006A4651EC190B00F0B7FC1BE051EC1A0B6C
:10038000C80F2FD0002C0CBF9FED790B9FED7A0B7F
:100390002EE01CBB51EC1A0BC80F23D1002C0CBF54
:1003A0009FED730B9FED740B22E0DFF8544404EBD8
:1003B0001150009051EC1A0BC80F07D10099002979
:1003C000CCBF9FED690B9FED6A0B11E000980028F0
:1003D000CCBF9FED670B9FED640B09E055EC194B0B
:1003E000EC0FD7E7002C14BF9FED650B9FED5E0B64
:1003F00002B051EC100BFBE151EC1A0B4B0043EA3D
:10040000D073420000260027BB4208BFB24204D18D
:10041000B0EE4A8AF0EE6A8A19E040F23345A5EB65
:100420005352352A04DB00F0000001F000410CE0DB
:10043000202A03DD203AD140914000E001D1002084
:1004400003E0002AC4BFD040904041EC180B51ECAF
:10045000190BC80F11D053EC1A2B51EC180B00F0EC
:1004600033FC0AD0AFF3008002B04FF0FF30BDEC98
:100470000C8B6FF00041BDE8F48C53EC192B23F08A
:100480000041B1F5801F22F000000AD2B94208BF36
:10049000B042009611D06A4651EC190B00F024FCD2
:1004A00009E0D74E06EB11500090DFF8C013D54895
:1004B00003401046194341EC190B51EC190BC80FBE
:1004C00008BF002638D021F0004053EC192B03461A
:1004D00043EC192B51EC180B4B0043EAD07342004C
:1004E0000026BB4208BFB24204D1B0EE480AF0EE8B
:1004F000680A19E040F23445A5EB5352352A04DB73
:1005000000F0000001F000410CE0202A03DD203A59
:10051000D140914000E001D1002003E0002AC4BF97
:10052000D040904041EC100B53EC182B51EC100BC9
:1005300000F0CAFB18BF01260098012824D151EC15
:10054000190BB14AB14B00F007FC1DD253EC192B2B
:1005500000204FF0804100F017FC00259FEDCABB42
:1005600041EC190B2EE000BF000000000000F07FFE
:1005700000000000000000000000000000000080FB
:10058000000000000000F0FF53EC192B0020A049F0
:1005900000F0FAFB9FED9F8B53EC182B00F0BEFC94
:1005A00000F078FDA0F12005284600F091FD002222
:1005B0009A4B00F0E9FB53EC182B00F0AFFC41EC38
:1005C0001B0B6D0151EC190B53EC1B2B00F092FD32
:1005D00041EC180B53EC192B51EC1B0B00F09EFC5B
:1005E00002460B4651EC180B00F0F6FD41EC1C0BDB
:1005F00053EC1C2B00F0C8FB41EC1D0B53EC1D2BE6
:100600008748884900F0C0FB874A884B00F086FC89
:1006100053EC1D2B00F0B8FB854A864B00F07EFCA6
:1006200053EC1D2B00F0B0FB834A844B00F076FCAA
:1006300053EC1D2B00F0A8FB814A824B00F06EFCAE
:1006400053EC1D2B00F0A0FB7F4A804B00F066FCB2
:1006500053EC1D2B00F098FB7D4A7E4B00F05EFCB6
:1006600053EC1D2B00F090FBB0EE489AF0EE689A28
:1006700053EC192B00F03EFD82468B4600205F496B
:1006800053EC1B2B00F036FD02460B4600204FF0CA
:10069000804100F079FB52465B4600F03FFC53EC92
:1006A0001C2B00F071FB41EC100B0FF2FC104719F2
:1006B00053EC192B51EC100B00F030FC41EC180BF3
:1006C000009800F005FDD7E9002300F027FC41EC7D
:1006D000190B53EC182B6048604900F055FB53ECA4
:1006E000192B00F01BFC53EC1A2B00F04DFB0022E1
:1006F0005B4B00F031FB41EC1B0B72D30122594BD9
:1007000000F08EFE63D9C80F53EC1B2B1ABF0020DC
:100710005549564900F002FC00F0BCFC054651EC7E
:10072000180B02460B4651EC1A0B00F02DFB8246CB
:100730008B46D7E90201D7E9042300F0EFFB02461C
:100740000B4651EC1A0B00F01FFB9FED49BB024614
:100750000B4651EC1B0B00F017FB52465B4600F0BA
:10076000DDFBCDE9000153EC192B51EC1A0B00F025
:100770000BFB07468B46284600F0AAFC02460B46B8
:100780003846594600F0B6FC02460B4651EC1B0BAE
:1007900000F0FAFADDE9002300F0C0FB0CB125609F
:1007A000002500950022154B00F052FE41EC1B0B7A
:1007B00020F0000221F000430020834208BF824263
:1007C0000FD048004015401C03D1090301D19FED13
:1007D0002ABB4EB151EC1B0B81F0004141EC1B0BCD
:1007E00002E09FED27BBF4E751EC1B0B0DF1080D68
:1007F000BDEC0C8BBDE8F48C0000F0BF0000F03FB6
:1008000002FCFFFFFFFF0F80CD3B7F669EA0E63F0F
:1008100000005040000000000000E03F0000903F5A
:10082000F7DE29BFD8F8C23FF4B3FECC1A99C33F14
:1008300062CB68D96F46C73FC6C912DAC471CC3FD4
:100840004AE98A942449D23FF75F97999999D93F09
:10085000BC5555555555E53FFE822B654715F73F6D
:100860000000E0C00000E0400000E0BF0000E03F0A
:10087000EF39FAFE422EE63F000000000000F07F54
:100880000000000000000000000000000000F03F39
:1008900080B541EC100B0020009051EC100BFFF7DD
:1008A00073FC04BD00000000000000000000F0BF69
:1008B0000000000000000080000000000000008038
:1008C0000000000000000000000000C05294EEBFD5
:1008D00000000048204E51BE000000F86467BCBC18
:1008E0000000000000000000000000208133EDBF88
:1008F00000000080B3DB14BE000000506706A3BCFC
:100900000000000000000000000000D0E9DCEBBFA8
:1009100000000008C39259BE00000080B0D3B8BCEC
:10092000000000000000000000000070F98FEABF26
:10093000000000C0A51028BE000000E8BFC0B0BC89
:10094000000000000000000000000070284CE9BF1B
:1009500000000060134B42BE000000C03D20B8BC48
:10096000000000000000000000000050FA10E8BF86
:10097000000000C05FF62BBE000000905C71A7BCB9
:10098000000000000000000000000020FCDDE6BFC9
:10099000000000C0F8F154BE00000018E9F6B9BC30
:1009A0000000000000000000000000D0C3B2E5BF5E
:1009B00000000070E43254BE00000050DB06B4BCFE
:1009C000000000000000000000000010EF8EE4BFF7
:1009D00000000020F36252BE000000C02A879ABCCB
:1009E0000000000000000000000000B02272E3BF21
:1009F000000000F0E8E056BE00000028352DBDBC28
:100A00000000000000000000000000000A5CE2BFDF
:100A1000000000B0FA8E41BE00000040AE6FBDBCC9
:100A2000000000000000000000000000564CE1BF84
:100A3000000000F015CD5FBE00000000141C90BC4B
:100A4000000000000000000000000040BD42E0BFC8
:100A500000000030F93457BE000000E06C1E93BC6B
:100A60000000000000000000000000E0F57DDEBF97
:100A7000000000B08A535EBE00000080DA77AABC96
:100A80000000000000000000000000C09D81DCBFED
:100A900000000000FFA226BE0000006057E2B0BCCC
:100AA000000000000000000000000060F98FDABFC5
:100AB000000000580A8151BE000000F05F60B8BC21
:100AC00000000000000000000000000098A8D8BF4F
:100AD000000000607A7F45BE000000D05433A3BC04
:100AE0000000000000000000000000600FCBD6BF37
:100AF000000000D091CB40BE000000406D1BA0BCA8
:100B00000000000000000000000000A0FBF6D4BFC1
:100B100000000098C5CE52BE000000003A397EBCED
:100B20000000000000000000000000E0FE2BD3BF2A
:100B30000000004073872BBE00000000926879BC63
:100B4000000000000000000000000040C069D1BFAC
:100B500000000058F16353BE00000080438D7CBC50
:100B6000000000000000000000000080D85FCFBF40
:100B7000000000181F8354BE000000B03F42A2BC1A
:100B800000000000000000000000008067FCCBBFF8
:100B900000000060FAFF53BE00000050E00DB8BC3A
:100BA00000000000000000000000000098A8C8BF7E
:100BB000000000607A7F35BE000000C0543393BC53
:100BC000000000000000000000000000DC63C5BF62
:100BD00000000058D6FF54BE00000000396490BCED
:100BE0000000000000000000000000C0AD2DC2BFEA
:100BF00000000080A45915BE000000E0484BABBCCB
:100C00000000000000000000000000801A0BBEBFC2
:100C100000000050BF3C5ABE000000A0B364B6BC48
:100C200000000000000000000000008004D6B7BFF4
:100C300000000040BBCF36BE0000008076CEA8BCCE
:100C400000000000000000000000008032BBB1BFC7
:100C5000000000402A0043BE00000028C60CBDBCB6
:100C60000000000000000000000000009473A7BF17
:100C7000000000182B3B59BE000000C0E55DA5BC7C
:100C8000000000000000000000000000EE4397BFDD
:100C9000000000A0E6C340BE00000020958DB5BC5A
:100CA00000000000000000000000000000000080C4
:100CB0000000000000000080000000000000008034
:100CC000000000000000000090420CD141EA030C3B
:100CD00050EA4C0C07D0994205D14FF4001C1CEB94
:100CE000410F38BF8942704710B5144600F002F832
:100CF000226010BDC1F30A5343B14A0012F5001F30
:100D000028D2A3F2FE32A1EB0251704750EA410C07
:100D100020D001F0004C31EA0C01B1FA81F204BF9D
:100D2000B0FA80F3D2180B3AB2F120032CBF00FACC
:100D300003F1914041EA0C013EBFC2F1200C20FAC0
:100D40000CF319439040524240F2FD33D21A01EBAA
:100D500003517047002270474FF4001C1CEB410FF9
:100D600094BF1CEB430F09E041EA030C50EA4C0C22
:100D700052EA0C0C03D2994208BF9042704714BF4C
:100D80008B42824270470000B0B581EA030C0CF040
:100D9000004C40F2FF7515EA11541DBF15EA1357B8
:100DA000AC42AF4231E0E41923EA455343F48013E7
:100DB000C90241F0004141EA505EC702A7FB0210A0
:100DC0000029A2FB0E21E3FB6720E3FB6E0118BFA5
:100DD00042F00102A4F580640F0302D252004041A8
:100DE000494154F101046CDD470872F1004250F1B1
:100DF000000051EB0451A1F580115CBF41EA0C01E8
:100E0000B0BD4CEA05510020B0BD05EA1357AC4215
:100E100014BFAF4241E050EA410E1CBF52EA430EFC
:100E200002E061460020B0BD24423C441BD15FEA91
:100E3000070EF6D0090302BF01460020AEF1140EE2
:100E4000B1FA81F7AEEB070401FA07FE0C37C7F1E0
:100E5000200100FA07F7C8404EEA000E23EA455386
:100E600043F48013AAE733F00043B3FA83F704BFD7
:100E7000B2FA82FE77440B3FE41BB7F1200E2FBF7E
:100E800002FA0EF3BB40C7F1200E22FA0EFE38BF65
:100E900043EA0E03BA40641C8AE750EA410E14BFCD
:100EA00052EA430E6FF000014FF4001717EB430FA7
:100EB0008ABF194617EB410FB5E74CEA05510020F0
:100EC000B0BDD4F10104B4F120070FDAC4F120075A
:100ED000520828BF42F0010210FA07F501FA07F79D
:100EE000E1BF2A43E0403843E1400FE0352C98DC75
:100EF000C7F1200452EA400220FA07F218BF42F07C
:100F0000010231FA07F0A1400A43002172F10042C8
:100F100050F1000051EB0C01B0BD000070B44FF077
:100F2000004591EA030F40F1ED806B40841A71EBAC
:100F3000030604D26E40001BB141121973414FF4F5
:100F4000001C1CEB410F34BF7CEB430682E00C0D10
:100F5000A4EB1356362E7BDC012E45EAC32341DC7D
:100F600043EA525312BFD20292025B08240545EABB
:100F7000C12141EA5051D2EBC020994125D407D17B
:100F8000B0FA80F610FA06F162D00020203608E0B0
:100F9000B1FA81F6B140C6F1200220FA02F2114303
:100FA000B0404FEAF474B4EB465434F001064FEA13
:100FB00074040AD8D6F50016760D04F00044F0400B
:100FC00061FA06F25040F1404840C00A40EA415000
:100FD00021F0004128BF5FEA500550F1000044EBCA
:100FE000D12135E0DB0A45EAC121C90AB6F1200565
:100FF0000EDD42EA0242120CC5F1200603FA06F6A3
:10100000EB4042EA06056D42984161F100010DE0B6
:1010100062FA06F5F240554063FA06FC82EA0C02D9
:10102000F3405A406D42904161EB030111F4801F7F
:1010300005D1641E620502D06D004041494121F492
:101040008011430875F1004350F1000041EB045159
:1010500070BC70471CEB410F15D223F0004352EADD
:1010600043060BD04FEA4C0CBCEB410F04D80C0DDF
:10107000661E342EB7DDEBE7801A994150EA41062F
:1010800008BF0021E4E708BF1CEB430F28BF6FF047
:101090000001DDE7C1F30A5340F2FE329B1A14DD72
:1010A000D3F120034FEAE17208DDC90241EA505151
:1010B00041F00040D84080185040704703F2E130C2
:1010C00010B1D24382F0004070470020704700000A
:1010D000C11768B14840401AB0FA80F29040D21C63
:1010E000C907C2F5846241EA025202EBD0214005F1
:1010F0007047000070B44FF0004591EA030F7FF590
:1011000015AF6B40841A71EB030603D2001BB1418B
:10111000121973414FF4001C1CEB410F34BF7CEBE0
:10112000430442E00C0DA4EB1356352E4FDC45EA88
:10113000C323DB0A45EAC121C912B6F120050DDD42
:1011400063FA05F6EB4086EA0305124218BF45F044
:101150000105C01851F100010CD213E062FA06F546
:10116000F2405540F3415A40B340F3405A40801892
:10117000594107D349085FEA30005FEA350528BFC7
:1011800045F0010501F58011420875F1004250F16A
:10119000000041EB04514E0016F5001F70BC38BF33
:1011A00070470020090D090570471CEB410F10D254
:1011B00052EA43060BD0BCEB410F05D80C0DAB43F4
:1011C000661E342EB6DD02E0AB438018594170BC78
:1011D000704770BC70470000F0B540F2FF7581EABF
:1011E000030C0CF0004C15EA11541DBF15EA1357FF
:1011F000AC42AF42E5E0BC41C1F31301C3F31303BA
:10120000801A994143F4801304D2641E400049417E
:1012100080185941C90241EA5051B1FBF3F603FB72
:101220001611A2FB0675D7EBC020A94102D2761E8B
:1012300080185941C90241EA5051B1FBF3FE03FB4A
:101240001E11A2FB0E75D7EBC020A94103D2AEF14F
:10125000010E80185941890241EA9051760546EA0B
:101260008E2EB1FBF3F603FB1611A2FB0675D7EB2E
:101270008020A94102D2761E80185941C90241EA54
:1012800050514EEA060EB1FBF3F603FB1611A2FB1A
:101290000675D7EBC020A94102D2761E80185941AD
:1012A000C90241EA5051B1FBF3F703FB1711A2FB4E
:1012B0000735D3EBC020A94167F100070CBF0042FE
:1012C00047F0010766F3D5274FEA1E31B80814F539
:1012D000806412DDBD0775F1004250EB0E5051EBFA
:1012E000045111F5801F5CBF41EA0C01F0BD4CF0C8
:1012F0007F6141F0E0410020F0BDBD076D0840EA8C
:101300000E5041F48011D4F10104B4F120060ADA40
:10131000C4F120060200E04001FA06F3E140184360
:10132000B24015430EE0342C13DCC6F1200445EA2C
:1013300040056D0820FA06F2154321FA06F0A14097
:101340000D43002175F1004250F1000051EB0C01FA
:10135000F0BD00205FEA0C01F0BDCFB992185B41EF
:10136000B3FA83F704BFB2FA82F6BF190B3FB7F1A5
:1013700020062FBF02FA06F3BB40C7F1200622FA6F
:1013800006F638BF3343BA401CB1E419641E33E794
:101390007F4231F00041B1FA81F404BFB0FA80F627
:1013A000A4190B3CB4F120062FBF00FA06F1A140AE
:1013B000C4F1200620FA06F638BF3143A0403C1B9A
:1013C0001AE7AC421ABF05EA1357AF4212E050EADF
:1013D00041061CBF52EA4306BFE750EA41073046C8
:1013E00061461CBF41EA0551F0BD52EA430C08BFFB
:1013F000C143F0BD00204FF4001616EB410F98BF1B
:1014000016EB430F08BF16EB410F24BFC14305E0A5
:1014100016EB430F0CBF61464CEA0551F0BD0000CE
:101420004FF4001C1CEB410F94BF1CEB430F09E071
:1014300041EA030C50EA4C0C52EA0C0C03D28B42EA
:1014400008BF8242704714BF994290427047000023
:10145000F8B52DED0A8B41EC1A0B48004015109D94
:10146000401C43EC182B24D051EC1A0B21F0004106
:101470000022914208BF90421BD051EC180B48004B
:101480004015401C15D051EC180B31F0004108BF3D
:1014900090420ED051EC1A0BDFF87433FFF75CFC6E
:1014A00080F0B18051EC180B9FED870B01F00042EA
:1014B000BAE051EC1A0B48004015401C02D1090358
:1014C00040F0A08151EC180B48004015401C01D1A0
:1014D00009035DD151EC180B20F0000221F000430C
:1014E0000020834208BF824208D151EC1A0B480009
:1014F0004015401C4CD109034AD10DE0480040156D
:10150000401C12D1090310D151EC1A0B48004015B0
:10151000401C3DD109033BD1AFF30080BDEC0A8BE9
:101520004FF0FF306FF00041F4BD51EC1A0B21F089
:10153000004100220023994208BF90422BD151EC78
:10154000180B4800400D05EB000237D151EC180B89
:1015500021F00041994208BF984206D02A4651EC3A
:10156000180B00F081F941EC180B51EC180B20F02E
:10157000000221F000430020834208BF824205D0D0
:1015800048004015401C03D1090301D1AFF300808E
:1015900051EC180B38E151EC1A0B48004015401C77
:1015A0002AD1090328D153EC1A2B51EC180BBDECAE
:1015B0000A8B01B0BDE8F040FFF7E6BB002AC5DDAD
:1015C00040F2FF7082420FDB9FEDA50B51EC100B38
:1015D000084653EC182B03F00041084353EC102B42
:1015E000034643EC182BC0E76FF31E5141EA02514A
:1015F00053EC182B0B46F4E751EC180B9FED320B14
:1016000001F0004210E00122824BFFF709FF11D8E0
:101610009FED930B51EC100B0A4651EC180BAFF3F6
:10162000008001F00040024351EC100BBDEC0A8B2E
:101630001146F4BD53EC1A2B77487849FFF7A4FB09
:1016400041EC100B53EC102B9FED759B03F0004207
:1016500051EC190B0C46144353EC192B51EC100BA5
:101660002346FFF75BFCFFF715FD0446FFF730FD4F
:1016700041EC1B0B53EC1B2B4FF078406A49FFF7F2
:1016800083FB02460B4651EC1A0BFFF733FD06466F
:101690000F4653EC1B2B65486549FFF775FB024667
:1016A0000B4630463946FFF725FD41EC1A0B21F079
:1016B000004100225F4BFFF74FFB09D2B0EE48AA72
:1016C000F0EE68AA56E000BF000000000000000035
:1016D00053EC1A2B51EC1A0BFFF756FB41EC1B0B8A
:1016E00053EC1B2B54485549FFF74EFB544A554BBE
:1016F000FFF714FC53EC1B2BFFF746FB41EC1C0BD4
:1017000053EC1B2B50485149FFF73EFB504A514BBD
:10171000FFF704FC53EC1B2BFFF736FB53EC192BA4
:10172000FFF7FCFB53EC1A2BFFF72EFB41EC190BD8
:1017300053EC1C2BFFF7F2FB9FED47AB53EC1A2B3E
:10174000FFF7ECFB06460F4651EC1C0B53EC192B34
:10175000FFF7D0FC53EC1A2BFFF7E0FB02460B46D9
:1017600030463946FFF738FD53EC182BFFF70CFBDA
:1017700041EC1A0B51EC1A0B2A194800400D02EBF0
:1017800000031DD0002B1BDD40F2FF7083420DDBF8
:101790009FED330B51EC100B084653EC1A2B03F062
:1017A0000041084353EC102B034606E06FF31E5133
:1017B00041EA035153EC1A2B0B4643EC1A2B0EE073
:1017C00051EC1A0B21F000410024A14208BFA042B5
:1017D00005D051EC1A0B00F047F841EC1A0B51EC14
:1017E0001A0B20F0000221F000430020834208BFC2
:1017F000824205D048004015401C03D1090301D1A5
:10180000AFF3008051EC1A0BBDEC0A8BF4BD000065
:1018100000C89CC000C89C40FE822B654715F73F5E
:10182000000000000000E03F422EE63FF2E4D5BC9D
:10183000E7E84B3E0000903C112E5781A03F503FFF
:101840005843128C8F71BC3F4BE8A541B752013F02
:101850000BBDF3DAE8708C3F000000000000F03FA1
:10186000000000000000F07F124254D440F2FF7CE0
:101870001CEA11530FD0634531D09B1863453CBF20
:1018800001EB0251704701F0004141EA0C51002088
:10189000AFF30080704750EA410320D001F0004CC4
:1018A00091EA0C011CD0B1FA81F30B3B9A420DD99D
:1018B000D21A994051EA0C01C3F1200C20FA0CFC19
:1018C00061449840531C40F2FF7CD7E7914041EAC5
:1018D0000C01C2F1200C20FA0CF319439040704720
:1018E000B0FA80F31533202BE0D3202AEED3203A30
:1018F000203B9A4209D9D21A00FA03F141EA0C01BD
:101900000020531C40F2FF7CB8E700FA02F141EAE4
:101910000C0100207047524240F2FF7C1CEA115338
:101920000DD06345DBD0B2EB030C3CBFA1EB025101
:1019300070470CF1010221EA035141F4801150EA91
:10194000410CCCD001F0004C352A27DC30B481EAC0
:101950000C01B2F1200309DAC2F12003044601FAB6
:1019600003F5D0402843D1409C400CE0C3F1200255
:10197000450020FA03F418BF44F0010421FA03F0F3
:1019800091400C43002174F1004550F1000051EBEF
:101990000C01244230BC7FF47BAF704761460020CD
:1019A00076E700002DE9F047050082B01AD0DFF895
:1019B0001C47DFF82867A06800F00C08E06800F01A
:1019C00003092878C10665D5B8F1000F05D0B8F134
:1019D0000C0F08BFB9F1010F40D12068810703D572
:1019E000A869002800F07E81216808074EBF2168A1
:1019F00071680909286A01F0F001814206D200F0FD
:101A000029FB00281AD100F032FA19E0206840F0D2
:101A1000080020602168286A21F0F001014321605C
:101A2000B8F1000F6068E96920F47F4040EA0120C6
:101A3000606005D1286A00F00DFB002840F052815B
:101A400000F0ABFAA26800F09EFADFF888060068A2
:101A500000F05CFB010000F0338103E2A86988B16B
:101A6000216841F00101216000F072FB0746206807
:101A7000810700F1238100F06BFBC01B0328F6D324
:101A80000320EFE120684008400000F0EDF9074630
:101A90002168880740F1148100F05AFBC01B03281D
:101AA000F6D3EDE76868B0F5803F06D0B0F5A02F1B
:101AB000216807D141F480212160206840F4803002
:101AC000206006E021F480312160226822F4802227
:101AD0002260686860B100F03BFB0746216888031C
:101AE00000F1028100F034FBC01B6528F6D3C7E784
:101AF00000F02EFB07462068810340F1F58000F0DE
:101B000027FBC01B6528F6D3BAE700F021FBC01BFA
:101B10000328C0F01181B3E7E86880B1216841F47F
:101B20008071216000F014FB07462068410500F138
:101B3000338100F00DFBC01B0328F6D3A0E720681B
:101B400020F4807000F090F907462168480540F1C4
:101B5000E58000F0FDFAC01B0328F6D390E770681B
:101B600040084000706000F0F3FA07467068810793
:101B700040F1E68000F0ECFAC01B0328F6D37FE7C3
:101B80000528306806D140F004003060316841F02B
:101B9000010105E0400840003060316821F0040197
:101BA0003160A86841F2893A60B100F0D1FA074685
:101BB0003168880700F1018100F0CAFAC01B504566
:101BC000F6D35DE700F0C4FA07463068810740F1BC
:101BD000F48000F0BDFAC01B5045F6D350E700F486
:101BE00000328A4211D1EA6B921E120500F4C00144
:101BF000520DB1EB425F08D1296C891E090600F035
:101C0000C06001F07E4188421FD0B8F10C0F69D04E
:101C10002068410166D42168C80063D4206820F0A0
:101C2000807000F021F907462168880140F1EC80BE
:101C300000F08EFAC01B0328F6D321E700F088FAE3
:101C4000C01B0328C0F009811AE7206881010CD469
:101C5000216841F080712160E06840F08070E060B0
:101C600000F076FA07462068810100F1FA8000F062
:101C70006FFAC01B0328F6D302E7B8F10C0F31D07E
:101C8000206820F080702060216811F0205F03D16F
:101C9000E06880088000E060E168DFF8440401400B
:101CA000E16000F055FA07462068810140F1D980D3
:101CB00000F04EFAC01B0328F6D3E1E600F0D7F897
:101CC0002878C10710D5B8F1080F06D0B8F10C0F6D
:101CD00008BFB9F1030F7FF4E5AE2068810303D597
:101CE000686808B90120BDE02978880716D5B8F1E1
:101CF000040F06D0B8F10C0F08BFB9F1020F7FF442
:101D00000BAF2068410502D5E8680028EAD0616879
:101D1000286921F0F85141EA0061616029780807DB
:101D20000ED5686900283FF41AAF716841F00101CF
:101D3000716000F00DFA0746706881077FF5E5AE27
:101D40002978480740D5A06DC1004FF000090AD49A
:101D5000A06D40F08050A0654FF00109A06D00F02B
:101D6000805000900098DFF87CA3DAF80010C805D6
:101D70001AD4DAF8000040F48070CAF8000000F0CD
:101D8000E7F90746DAF80010C8050DD400F0E0F9CD
:101D9000C01B0328F6D373E66068296920F0F85069
:101DA00040EA01606060B9E7A86801287FF4E8AE06
:101DB000306840F001003060F3E6B9F1000F03D065
:101DC000A06D20F08050A065A86A002849D00228A4
:101DD0007FF453AFE068EA6A00F00301914201BF6B
:101DE00000F070012A6B521EB1EB021F04D16A6B26
:101DF00000F4FE41B1EB022F7FF407AFA96B072976
:101E00000CBF00210121EAE6E168DFF8DC02EA6BA1
:101E10000140E86A0143286B401E41EA0011686BEB
:101E2000921E120541EA0021286C801E520D000608
:101E300041EA425100F07E400143A86B000941EAAB
:101E40004041E160206840F080702060E16841F02E
:101E50008071E16000F07CF90746206881017FF520
:101E6000EDAE0020BDE8F687206000F071B9206873
:101E700040F0080020602168286A21F0F001014349
:101E800021606068E96920F47F4040EA01206060D9
:101E900070472DE9F0410400884668D0DFF84C72A5
:101EA00000F06CF802D200F064F860D12178DFF81D
:101EB0001C52C8074AD56068032802D129688A01E4
:101EC00007E0022802D129688A0302E018B92968CC
:101ED0008A0703D44BE02A68510548D5A9688908C8
:101EE00040EA8100A86000F033F90646A8686168FE
:101EF00000F00C00B0EB810F28D000F029F9801B16
:101F000041F289329042F1D303201DE0207841074D
:101F100005D5A968E06821F4E0610143A960207853
:101F2000010706D5A868216920F4605040EAC10085
:101F3000A86000F032F8AA6800F025F8BDE8F0418A
:101F40006448006800F0E2B8BDE8F08121788807B5
:101F500005D5A968A06821F0F0010143A96038689F
:101F600000F007008045D1D200F003F8CED0012068
:101F7000EAE73968C90848EAC1013960386800F001
:101F80000700404570475A49C2F30312895C504A22
:101F900001F01F01C8401060704770B54B4A564BA6
:101FA0009068D6680025002110F00C0006F00306AA
:101FB000524C03D00C2812D1012E1AD115682E07CD
:101FC00004D4454D2E68C6F3032502E01568C5F319
:101FD00003154B4E56F8255048B9294624E00428ED
:101FE00008BF214620D008281ED119461CE00C2825
:101FF0001AD1D06800F00300022803D0032808BFDC
:102000001D4600E02546D168D068D268C0F306209E
:102010004543C1F30210C2F34161401C491CB5FBAA
:10202000F0F04900B0FBF1F1084670BD2848314A94
:10203000006813683349C3F3022206E024482D4A9E
:10204000006813682F49C3F3C222895C01F01F01A5
:10205000C840704770B52C4E82B0054630680024E9
:10206000C10002D500F07AF80EE0306840F08050F0
:102070003060316801F080510091009800F06EF8F6
:10208000316821F080513160B0F5007F04D1802D9E
:102090000CD9A12D09D304E0802D88BF032405D8D5
:1020A00001D1022402E0702D00D101240F48016803
:1020B000C90844EAC1010160006800F00700A042BD
:1020C00001D0012076BD002076BD00000010024046
:1020D0001C000020180000209410024090100240C4
:1020E000FFFFEEFE007000408C809DF90020024052
:1020F000303300080810024000127A000024F40077
:1021000040330008F83400085810024070B50E4EF5
:10211000044630780025A0B14FF47A71B1FBF0F09D
:102120000A490A68B2FBF0F000F090F848B9102CA8
:1021300007D2002221464FF0FF3000F069F8B4606A
:1021400000E00125284670BD100000201C00002082
:1021500001484068704700BF10000020DFF87000A1
:10216000006800F4C060704710B5DFF86410B0F587
:10217000007F086800F4C0601AD1B0F5007F20D05D
:102180000A68DFF85030DFF8504022F4C06242F4B1
:1021900000720A6032201A684243B2FBF4F0401C1D
:1021A0004A6953050FD5002818BF401EF8D10AE030
:1021B000B0F5806F05D00A6822F4C06242F48062F4
:1021C0000A60002010BD48694105FAD5032010BD02
:1021D000007000401C00002040420F000901020076
:1021E00002D4244881547047234802F00F0210445F
:1021F00000F8041C7047214A13684FF6FF010002E3
:102200000B4000F4E06018431D490843106070471C
:1022100038B51A4B1C68C4F30223C3F10704052C1C
:1022200028BF04241D1D072D34BF0023DB1E0125FC
:1022300005FA04F4641E2140994005FA03F35B1E7D
:102240001A401143BDE83440C8E7000010B5401EF5
:10225000B0F1807F01D3012010BD0A4C60600F21D6
:102260004FF0FF30FFF7BAFF0022A2600720206086
:10227000002010BD00E400E018ED00E00CED00E0EF
:102280000000FA0510E000E02DE9F047064682B0B4
:102290003068DFF8187400240105A04621D5706E5F
:1022A00070B1B0F5800F17D0B0F5000F03D0B0F5C6
:1022B000400F09D013E03A6842F480323A6004E0FB
:1022C000002100F07AF9044654B9F96F706E21F4D8
:1022D00040010143F96704E000F069F9F3E70124E4
:1022E000A0463068C10421D5B06EA8B1B0F1807F9E
:1022F00017D0B0F1007F03D0B0F1407F04D013E0DD
:10230000386840F4803038607CB9F96FB06E21F0E5
:1023100040710143F96709E0002100F04EF90446DD
:10232000F2E700F044F9FAE70124A046306881039F
:102330002BD5F86CC1004FF000090AD4F86C40F0BE
:102340008050F8644FF00109F86C00F08050009064
:102350000098DFF85C53296841F480712960FFF729
:10236000F7FE82462868C10500F1ED80FFF7F0FE18
:10237000A0EB0A000328F5D30324A046B9F1000F0F
:1023800003D0F86C20F08050F8643178C80705D588
:10239000F96FB06B890840EA8101F96730788107ED
:1023A00005D5F96FF06B21F00C010143F967307826
:1023B000410705D5F96F306C21F030010143F96711
:1023C0003078010705D5F96F706C21F0C001014329
:1023D000F9673078C10605D5F96FB06C21F440710A
:1023E0000143F9673078810605D5F96FF06C21F467
:1023F00040610143F9673068810505D5F96FF06DDB
:1024000021F440210143F9673068410505D5F96F92
:10241000306E21F440110143F9673078410605D54B
:10242000F96F306D21F440510143F96730780106AE
:1024300005D5F96F706D21F440410143F9673068AB
:10244000C10505D5F96FB06D21F440310143F9673D
:10245000306881041CD5F96FF06E00F09EF8F06EC4
:10246000B0F1006F0DD100F09DF811E0FFF770FEA4
:10247000001B41F289318842C0F083804FF003088D
:102480007CE7B0F1806F03D100F096F800B1804690
:102490003068010311D5F96F306F00F07EF8306FAE
:1024A000B0F1006F02D100F07DF806E0B0F1806F6E
:1024B00003D100F081F800B180463068410311D5A6
:1024C000F96F706F00F069F8706FB0F1006F02D1B2
:1024D00000F068F806E0B0F1806F03D100F06CF80E
:1024E00000B180463068410417D5F96FB06F21F014
:1024F00040510143F967B06FB0F1805F03D1022111
:1025000000F05BF807E0B0F1005F06D1022106F1B0
:10251000200000F0D5F800B180463068010405D5F0
:10252000F96FF06F21F080410143F9673068C10312
:1025300006D5F96FD6F8800021F000410143F96714
:102540004046BDE8F687002C7FF417AFDFF86C52E9
:10255000286810F440701CBFD6F8841088420BD055
:102560002868296841F48031296020F440702A6885
:1025700022F480322A602860C00706D5FFF7E8FD04
:102580000446286881077FF571AF2968D6F8840072
:1025900021F4407101432960F0E621F040610143DC
:1025A000F9677047386840F4801038607047002140
:1025B00006F1200000F084B80121301DFFE72DE96D
:1025C000F04105467E4F28680C46F968002611F058
:1025D000030F0DD0F96801F00301814231D180B3BE
:1025E000F8686968C0F30210401C88420ED028E0E9
:1025F000012804D025D303281DD018D321E0396841
:102600008A071ED5F9686A6800F0C4F8386820F0B7
:10261000806000F0CFF880463968080136D5FFF7B2
:1026200097FDA0EB08000328F6D303263CE03968A9
:102630004A05E7D405E03A689103E3D439684A03D0
:10264000E0D4012630E0012C3A690AD15D4802400D
:102650002869801E000542EA0121400D41EA4051EF
:1026600004E059480240686900F09CF83961386814
:1026700040F0806000F09EF80446396808010FD4ED
:10268000FFF766FD001B0328F7D3CEE7A968002CEF
:10269000D9D13A694D480240E86800F00BF8E5E707
:1026A0003969A8690143396171E000000C100240EA
:1026B0000070004042EA0121000941EA40417047B0
:1026C0002DE9F04104463E4F20688846F96800260F
:1026D00011F0030F0DD0F96801F00301814230D1F0
:1026E00078B3F8686168C0F30210401C88420ED0CD
:1026F00027E0012804D024D303281CD017D320E0DE
:1027000039688A071DD5F968626800F043F83868AF
:1027100020F0805000F04EF805463968880027D533
:10272000FFF716FD401B0328F7D303262FE0396877
:102730004A05E8D405E03A689103E4D439684A03CD
:10274000E1D4012623E020480240206900F02AF865
:102750007961386840F0805000F02CF805463968FF
:10276000880010D4FFF7F4FC401B0328F7D3DCE704
:10277000A1687A69B8F1000FE5D114480240E06819
:10278000FFF798FFE4E779696069014379613046B2
:10279000BDE8F08121F073010843521E40EA0210A7
:1027A000F8607047801E000642EA012100F07E407A
:1027B000014370473860FFF7CBBC00009010024027
:1027C00000100240FF809FFFFF80FFF9FF80FDFFA8
:1027D00038B5040009D004F17005686808B900F044
:1027E0001EF800F021F8012801D1012032BD606AF5
:1027F00008B100F02AF800F00AF821F02A01FFE7FA
:10280000816000F01BF8BDE8324000F0A0B92068FC
:10281000416821F49041416020688168704700213F
:102820002970204600F01ABA2420686020680168E8
:10283000490849000160204600F00AB82068016894
:1028400041F00101016020467047204600F01CB9AC
:10285000F8B5044683482168834F0A68834E0240D6
:10286000A06802432069024360690243E0690243B1
:102870000A6000254A68E06822F4405202434A6038
:10288000A369774A91421CBF206A0343886820F4F9
:10289000306003438B60B94275484FF4004333D135
:1028A000366806F00306032E3BD8DFE806F0026F19
:1028B00060810127E169B1F5004F4FF6F07640F0F5
:1028C000A7805FB1012F00F09B80022F0AD0042F58
:1028D00000F09980082F00F09980BBE0FFF7A6FB7D
:1028E000002810D061684A0802EB4002B2FBF1F008
:1028F00080B2A0F11001B142EFD20640C0F3420015
:1029000006432068C660A6E05A4FB94221D1366816
:1029100016F00C065DD0042E38D0082E27D00C2ED1
:1029200046D010279142C5D137B1022F08D0042FCD
:1029300051D0082F52D08DE0FFF778FB0028E2D06D
:10294000626802EB4201884202D31103814247D2FE
:1029500080E0494FB9420CD1366816F0300638D0C5
:10296000102E13D0202E02D0302E21D0D9E70227EE
:10297000D8E7424FB9420BD1366816F0C00628D0CE
:10298000402E03D0802EF2D0C02EEEE70427C9E7F8
:102990003B4FB9420ED1366816F4407619D0B6F5E1
:1029A000807FF3D0B6F5007FE1D0B6F5407FB8D197
:1029B0000827B7E79142B4D1376817F4406708D0C9
:1029C000B7F5806FE2D0B7F5006FD0D0B7F5406FA4
:1029D000CBE70027A6E7FFF7E0FAAFE71846AFE737
:1029E000010E560816EB00206941002300F06CF937
:1029F000A0F54071234A91422CD22268D0602AE08F
:102A0000FFF71CFB6CE7FFF7C8FA69E7184669E7B0
:102A100047B1012F16D0022F07D0042F15D0082F51
:102A200016D017E0FFF702FBA8B1616800EB510078
:102A3000B0FBF1F080B2A0F11001B1420AD22168DE
:102A4000C86008E0FFF7FAFAEEE7FFF7A6FAEBE74F
:102A50001846EAE701250020206660662846F2BD98
:102A600000800040F369FFEF003801408810024009
:102A70000024F4000044004000480040004C0040A6
:102A80000050004000FD0F0090F82410CA0706D542
:102A900002685368816A23F400330B43536090F853
:102AA00024108A0706D502685368C16A23F480336C
:102AB0000B43536090F824104A0706D50268536808
:102AC000016B23F480230B43536090F824100A0712
:102AD00006D502685368416B23F400430B435360EF
:102AE00090F82410CA0606D502689368816B23F417
:102AF00080530B43936090F824108A0606D5026831
:102B00009368C16B23F400530B43936090F8241037
:102B10004A0610D502685368016C23F480130B43F6
:102B20005360016CB1F5801F05D15368416C23F4EB
:102B3000C0030B43536090F824100A0606D50268C0
:102B40005168806C21F40021014351607047F8B551
:102B5000044604F170050020E8606FF07E47FFF73F
:102B6000F7FA0646206801680A0708D50097334639
:102B700000224FF40011204600F016F860B92068DA
:102B800001684A070AD50097334600224FF48001B6
:102B9000204600F009F808B10320F2BD202068604B
:102BA000A86000202870F2BD2DE9F041069C054682
:102BB0000E4690461F462868C1693140B1420CBF9D
:102BC0000120002040451CD114F1010FF3D0FFF784
:102BD000BFFAC01B844200D314B900F015F80CE012
:102BE000286801684A07E6D5C1690A05E3D54FF4AC
:102BF0000062026200F008F8C16000210170032049
:102C000000E00020BDE8F0812868016821F4D0715F
:102C100001602868816849084900816005F17000F9
:102C2000202141608160704780B5244824490160BB
:102C30004FF4E131416000218160C16001610C21EC
:102C4000416100218161C16101624162FFF7C0FD04
:102C500018B1BDE8014000F032B901BD10B586B031
:102C6000044601A8142100F02BF92168144A91426E
:102C700021D11448C16841F40031C1600222C16809
:102C800001F4003100910099016841F001010160F7
:102C90000C21006800F001000090009801910020D4
:102CA00003900321072004910590029201A94FF09F
:102CB000904000F009F906B010BD0000AC040020FF
:102CC000004400404C1002401B4213D1094236D14F
:102CD0002AB18446B0FBF2F002FB10C2704700F04C
:102CE000F3B9FCD30022002370470B00020000213F
:102CF00000207047904271EB030CF6D370B5B1FA27
:102D000081F4B3FA83F52C1BA340C4F1200532FAF9
:102D100005F63343A2405FF00046E64002E05B0860
:102D20005FEA3202841A71EB030524BF204629466C
:102D30007641F4D302000B003000002170BD012A5F
:102D4000CFD970B5140C20D0B1FA81F4B2FA82F563
:102D5000C4F120046419B4F12006D6D3B2405FF068
:102D60000044F440002502E052085FEA3303C61A2B
:102D700071EB020E24BF3046714664416D41F3D3BE
:102D800002000B002000290070BD0C46B1FBF2F1DF
:102D900002FB11452D0445EA1045B5FBF2F402FB98
:102DA000145580B240EA0545B5FBF2F002FB105223
:102DB00040EA044070BD00002DE9F843894604460E
:102DC000A9F101060027DFF840804F451ADA58F8CC
:102DD00027503046FEF77CF941EC110B9FED0B0BB1
:102DE00000F076F951EC100BFEF754F904420CBFD9
:102DF00000220122A9B24FF0904000F04EF9761E59
:102E00007F1CE2E7BDE8F183000000200000000025
:102E10000000004080B500F063F900F013F800F006
:102E200075F9FFF701FF00F0C3F9C21000EB127251
:102E300012110421A0EB0210FFF7BEFFFA2000F0F0
:102E40000BFAF0E700B5B9B005A8442100F038F856
:102E50006846142100F034F816A8882100F030F8F4
:102E6000022005904FF480710891102009900221F2
:102E70000F9110910A200121129011910220072137
:102E800014901590139105A8FEF78CFD0F2000906B
:102E900003210020019102900390049004216846D0
:102EA000FEF7F7FF022016900021259116A8FFF7E4
:102EB000EBF94FF40070FFF757F939B000BD7047D8
:102EC000002200F0DDB900002DE9F84F4FF0000CB2
:102ED000744A754BDFF8D4814FF00F0906460F4650
:102EE00034E0734CA64214BF07240624AC4044EAE5
:102EF0000E0443F82140C143146801EA040E7C68C3
:102F0000E50348BF40EA0E0EC2F800E0546801EA4B
:102F1000040E7C68A50348BF40EA0E0EC2F804E028
:102F2000946801EA040E7C68E50248BF40EA0E0E90
:102F3000C2F808E0D46801EA040E79688C0248BF40
:102F400040EA0E0EC2F80CE00CF1010C396831FABF
:102F50000CF000F0A080012505FA0CF515EA01003F
:102F6000F2D04FEA4C0E032404FA0EF47968E443DD
:102F7000ED43012918BF022903D0112918BF1229D6
:102F800013D1B168D7F80CA021400AFA0EFA4AEA28
:102F90000101B1607168D7F804A0CAF3001A294092
:102FA0000AFA0CFA4AEA01017160796801F0030A31
:102FB000BAF1030F09D1D6F82CA0C1F3C00105EA7C
:102FC0000A0501FA0CF10D43F562F168BD68214074
:102FD00005FA0EF52943F1604FEA8C05796802295C
:102FE00018BF122916D14FEADC0106EB810A05F061
:102FF0001C0BDAF8201009FA0BFB21EA0B010091F7
:1030000005F01C0B396901FA0BFB00994BEA010131
:10301000CAF82010316821403C7904F0030404FA16
:103020000EF4214331607968C9008DD5D8F80010BD
:1030300041F00101C8F8001005F00C05D8F8004077
:1030400004F00104009409FA05FE00994FEA9C017E
:1030500053F8214024EA0E0EB6F1904F08BF002429
:1030600018D0144CA64208BF012413D0124CA6421B
:1030700008BF02240ED0114CA64208BF032409D079
:103080000F4CA64208BF042404D00E4CA6427FF485
:1030900028AF05242AE7BDE8F18F0AB181617047A6
:1030A0008162704700040140080001406010024046
:1030B000001800480004004800080048000C0048C0
:1030C0000010004800140048704741EC100B01BD8F
:1030D00080B553EC112B51EC100BFDF7D9FBF4E745
:1030E000094810B5016841F4807101600320FFF7C1
:1030F00082F80020FFF70AF80024002814BF0124FA
:1031000000F0D8F8204610BD0020024010B586B06F
:1031100001A81421FFF7D4FE2248046844F00404F7
:103120000460016801F0040100910099016841F018
:1031300080010160026802F080020092009901683B
:1031400041F001010160026802F0010200920022D8
:103150000099016841F0020101604FF47871006844
:1031600000F00200009000984FF09040FFF795FFAC
:103170004FF40050019000200B490291039001A9E7
:103180000A48FFF7A1FE4FF478700190012100205A
:1031900002910390049001A94FF09040FFF794FE34
:1031A00006B010BD4C10024000002110000800487D
:1031B000F0B4254C254A2078254B6FF0004150BBD8
:1031C0000820656803FB05250E46B5FBF6F601FBF6
:1031D0001655401E6560F4D11E4D2E4610206768BE
:1031E00003FB07278C46B7FBFCFC01FB1C776760E1
:1031F00046F8047B8C4603FB0727B7FBFCFC01FB6E
:103200001C776760401E46F8047BE8D1E86FC5F87C
:10321000800001202070606803FB00220846B2FB9A
:10322000F0F001FB10210B4A616092F8803003F04E
:103230001F0352F82300C2F8800042F8231020F048
:103240004040F0BC70470000200000205FF36E3C5F
:103250000D6619002804002038B50446FEF778FFF3
:1032600014F1010F054602D0044801786418FEF7F6
:103270006FFF401BA042FAD331BD00BF10000020F9
:1032800000B500BF130096469446103928BFA0E849
:103290000C50FAD85FEA417C28BF0CC048BF40F808
:1032A000042BC90728BF20F8022B48BF00F8012BC8
:1032B00000BD00000A4881B0816841F001018160D1
:1032C000816801F0010100910099016841F080518D
:1032D0000160006800F080500090009801B07047D5
:1032E000581002400E48016841F47001016000224C
:1032F0000C49086840F0010008608A600A480A68C2
:1033000002400A604FF48050C8600022086820F430
:10331000802008608A614FF00060044908607047AF
:1033200088ED00E000100240FFFFF6EA08ED00E043
:103330000000000000000000010203040607080965
:10334000A0860100400D0300801A060000350C0025
:1033500040420F0080841E0000093D0000127A00E8
:103360000024F40000366E010048E801006CDC0225
:1033700019E050F8042BD30744BFA9F101039A18B0
:10338000091F0023042942F8043BF9D25FEA817C3B
:10339000134604D54FF0000CA2F800C09B1CC907CF
:1033A00044BF0021197050F8041B0029E1D1704777
:1033B00010B450F8041B79B1026843680244083025
:1033C000DC0744BFA9F10104E31852F8044B43F8A9
:1033D000044B091FF9D1ECE710BC704710B5074941
:1033E00079441831064C7C44163404E00A68081D00
:1033F000114488470146A142F8D110BD5400000095
:1034000074000000000200000001000080000000C5
:10341000400000000100000000000000100000005B
:1034200000093D0000000000010000004EF6885138
:10343000CEF20001086840F470000860BFF34F8FBF
:10344000BFF36F8F4FF00070E1EE100A704700007D
:1034500021FFFFFF040100002804002000000000FD
:1034600051FFFFFF280000009CFFFFFF000000202D
:103470000000000000F00BF8002801D0FFF7AEFFBD
:103480000020AFF30080FFF7C5FC00F002F8012038
:10349000704700F001B800000746384600F002F817
:1034A000FBE7000080B5AFF30080024A110018204E
:1034B000ABBEFBE7260002007047FEE7FEE7FEE733
:1034C000FEE770477047704700F000B80248416857
:1034D0000278891841607047100000200148804739
:1034E00001480047E5320008ED340008AFF30080E2
:1034F000FFF79CFFFFF7BEFF00000000010203047E
:10350000FFF7FEBFFFF7FEBFFFF7FEBFFFF7FEBFEF
:10351000FFF7FEBFFFF7FEBFFFF7FEBFFFF7FEBFDF
:10352000FFF7FEBFFFF7FEBFFFF7FEBFFFF7FEBFCF
:10353000FFF7FEBFFFF7FEBFFFF7FEBFFFF7FEBFBF
:10354000FFF7FEBFFFF7FEBFFFF7FEBFFFF7FEBFAF
:10355000FFF7FEBFFFF7FEBFFFF7FEBFFFF7FEBF9F
:10356000FFF7FEBFFFF7FEBFFFF7FEBFFFF7FEBF8F
:10357000FFF7FEBFFFF7FEBFFFF7FEBFFFF7FEBF7F
:10358000FFF7FEBFFFF7FEBFFFF7FEBFFFF7FEBF6F
:10359000FFF7FEBFFFF7FEBFFFF7FEBFFFF7FEBF5F
:1035A000FFF7FEBFFFF7FEBFFFF7FEBFFFF7FEBF4F
:1035B000FFF7FEBFFFF7FEBFFFF7FEBFFFF7FEBF3F
:1035C000FFF7FEBFFFF7FEBFFFF7FEBFFFF7FEBF2F
:1035D000FFF7FEBFFFF7FEBFFFF7FEBFFFF7FEBF1F
:1035E000FFF7FEBFFFF7FEBFFFF7FEBFFFF7FEBF0F
:1035F000FFF7FEBFFFF7FEBFFFF7FEBFFFF7FEBFFF
:10360000FFF7FEBFFFF7FEBFFFF7FEBFFFF7FEBFEE
:10361000FFF7FEBFFFF7FEBFFFF7FEBFFFF7FEBFDE
:10362000FFF7FEBFFFF7FEBFFFF7FEBFFFF7FEBFCE
:10363000FFF7FEBFFFF7FEBFFFF7FEBFFFF7FEBFBE
:04364000FFF7FEBFD3
:04000005080034EDCE
:00000001FF
